:020000040800F2
:1000000028900020A101000805C20008635F0008D5
:100010008DC100080B0A0008610001080000000003
:100020000000000000000000000000001BC20008EB
:10003000D50F00080000000019C2000889C300089D
:10004000BB010008BB010008BB010008BB010008A0
:10005000BB010008BB010008BB010008BB01000890
:10006000BB010008BB010008BB010008CD0D000862
:10007000DD0D0008ED0D0008FD0D00080D0E000857
:10008000BB0100081D0E0008BB010008BB010008F1
:10009000BB010008BB010008BB010008BB01000850
:1000A000BB010008BB010008BB010008BB01000840
:1000B000BB010008BB010008BB010008BB01000830
:1000C000BB010008BB010008BB010008BB01000820
:1000D000BB010008BDCD0008BB010008CDCD000864
:1000E000BB010008BB010008BB010008BB01000800
:1000F000BB010008BB010008BB0100082D0E000871
:10010000BB010008BB01000879C40008BB0100085E
:10011000B5C70008C5C70008BB010008BB0100083F
:10012000BB010008BB0100083D0E0008BB01000830
:10013000BB0100080000000000000000210A0008C8
:10014000110A0008BB010008BB01000809C2000831
:10015000BB0100084D0E00085D0E0008DDCD000853
:10016000BB010008BB010008BB010008BB0100087F
:10017000BB010008BB0100080000000000000000F7
:10018000BB010008BB010008DFF810D000F0FCFB49
:1001900000480047EB3F0108AFF3008028900020A3
:1001A0000648804706480047FEE7FEE7FEE7FEE711
:1001B000FEE7FEE7FEE7FEE7FEE7FEE765C40008B0
:1001C000890100082DE9F05F0546002092469B4614
:1001D00088460646814640241BE02846414647465D
:1001E000224600F09AFA53465A46C01A914110D35B
:1001F00011461846224600F081FA2D1A67EB0108D5
:100200004F4622460120002100F078FA17EB000942
:100210004E41201EA4F10104DFDC484631462A4647
:100220004346BDE8F09F40EA01039B0703D009E085
:1002300008C9121F08C0042AFAD203E011F8013BD2
:1002400000F8013B521EF9D27047D2B201E000F82B
:10025000012B491EFBD270470022F6E710B513466A
:100260000A4604461946FFF7F0FF204610BD421C1F
:1002700010F8011B0029FBD1801A704710B500222D
:1002800000E0521C835C8C5CA34201D1002BF8D1AE
:10029000D8B2E1B2401A10BD30B504460020034682
:1002A00000E05B1C934203D2E05CCD5C401BF8D0C5
:1002B00030BD034611F8012B00F8012B002AF9D1BB
:1002C000184670472DE9FE4F804681EA0300C00FB3
:1002D0000C46009021F0004123F00045B8EB0200ED
:1002E000A94105D24046214690461C460B4602468F
:1002F00023F00040104347D0270DC7F30A00C3F393
:100300000A510290401A019040286BDAC3F313009F
:1003100040F4801B0098924620B10023D2EB030AE0
:1003200063EB0B0B01985946C0F14002504600F0B8
:10033000E5F906460D4650465946019A00F0FDF98A
:1003400010EB08006141002487EA115284EAE77348
:100350001A4340D0009A62B3019A012A4FEA075229
:1003600015DC001B61EB02014FF0004202EA07526C
:10037000CDE90042001C41F5801132462B4600F0C9
:1003800034FA03B0BDE8F08F40462146F9E7001B80
:1003900061EB0201001C41F5801300185B4120183D
:1003A000A2F5001747EB030140EAD570B6196D417D
:1003B00011E06D084FEA360645EAC0754FEA07526C
:1003C000001B61EB0201001C41F5801149084FEA56
:1003D00030000019514132462B4603B0BDE8F04FC2
:1003E00000F0F4B90098012240000023D0EB020293
:1003F00063EBE073009821464FEAE074B8EB00002D
:1004000061EB0401E9E783F000435BE781F0004121
:1004100058E72DE9FE4F81EA030404F0004421F07F
:10042000004100944FF0000B23F0004350EA010418
:100430005ED052EA03045BD0C3F30A54C1F30A55F9
:100440002C44A4F2F3340194A0FB0254C1F3130131
:1004500041F48011C3F3130343F4801301FB0244FE
:1004600000FB034E840A970A44EA815447EA835703
:10047000A4FB076802958D0A05FB07854FEA932CBC
:1004800004FB0C542705029D4FEA065847EA16372D
:10049000B5EB08056EEB070C870E920E47EA811745
:1004A00042EA8312A7FB0201B6EB0B0164EB0004E6
:1004B0002B0D43EA0C335E1844EB1C50DA465146D0
:1004C000E7FB0201C5F313044FEA0B3343EA14536D
:1004D0004FEA0432019C43EA0603A4F10C0402949F
:1004E000009CCDE900B400F080F903B0BDE8F08FC6
:1004F00000200146F9E72DE9F04D81EA030404F0FC
:10050000004B21F0004514464FF0000A23F0004153
:1005100050EA050220D054EA01021DD0C5F30A5763
:100520000246C5F31303C1F31300C1F30A5640F4A6
:10053000801543F48013A7EB0608101BD64608F27B
:10054000FD3873EB050002D308F1010801E09218B1
:100550005B41B8F1000F03DA00200146BDE8F08DE1
:1005600000204FF48011064684460EE0171B73EB03
:10057000050705D3121B63EB050306434CEA010C88
:1005800049084FEA300092185B4150EA0107EDD16B
:1005900052EA030012D082EA040083EA050108430C
:1005A00005D0101BAB4106D20122002306E0002239
:1005B0004FF0004302E06FF0010253101AEB060007
:1005C0004CEB085110EB0A0041EB0B01BDE8F04D7C
:1005D00000F0FCB80EB5C10F80EAE0700844CA070D
:1005E000002140F233438DE80E000A460B4600F02E
:1005F000FCF803B000BD0EB540F23341029100217A
:10060000CDE900110A460B4600F0EFF803B000BD3B
:10061000C1F30A5210B5C1F3130140F2FF3341F4A4
:1006200080119A4201DA002010BD40F233439A4211
:10063000A2F2334203DC524200F06FF810BD90404A
:1006400010BD00F0004230F000400AD0C10D01F5AD
:100650006071C0F3160042EA0151C208400711431D
:10066000704700200146704730B5041E71F1000448
:1006700004DB4FF00044404264EB0101141E73F1AF
:10068000000405DB1C464FF00043524263EB0403B9
:100690008B4208BF824230BD01F0004330B421F0EC
:1006A000004150EA010206D00A0DA2F56072C1F3C2
:1006B0001301002A02DC30BC00207047440F44EADA
:1006C000C104C100E01830BC00EBC25000F047B8D4
:1006D00030B50B46014600202022012409E021FA12
:1006E00002F59D4205D303FA02F5491B04FA02F50F
:1006F0002844151EA2F10102F1DC30BD202A04DBE2
:10070000203A00FA02F1002070479140C2F1200324
:1007100020FA03F3194390407047202A04DB203A63
:1007200021FA02F00021704721FA02F3D040C2F111
:1007300020029140084319467047202A06DBCB1758
:10074000203A41FA02F043EAE07306E041FA02F38C
:10075000D040C2F120029140084319467047002959
:10076000A8BF7047401C490008BF20F00100704737
:1007700010B4B0FA80FC00FA0CF050EA010404BF97
:1007800010BC704749B1CCF1200421FA04F411FAED
:100790000CF118BF012121430843A3EB0C01CB1D31
:1007A0004FEA00614FEA102042BF002010BC7047A2
:1007B00000EBC35010440029A4BF10BC7047401C7C
:1007C000490008BF20F0010010BC704710B5141E8E
:1007D00073F1000408DA401C41F1000192185B41FA
:1007E0001A4301D120F0010010BD2DE9F04D9246D1
:1007F0009B4611B1B1FA81F202E0B0FA80F22032E8
:100800009046FFF77BFF04460F4640EA0A0041EAA4
:100810000B0153465A46084313D0114653EA0100D0
:1008200019D0C8F140025046FFF777FF05460E4643
:10083000504659464246FFF761FF084305D0012064
:1008400004E020463946BDE8F08D0020054346EA25
:10085000E0762C4337430A986305E40AA0EB0800CE
:100860000022FD0A44EA47540A3002D5002001461E
:10087000E9E7010510196941DDE9084500196941F9
:10088000BDE8F04DA2E72DE9F04D00231A461B1AF2
:100890008A4103DB00200146BDE8F08DC1F30A5216
:1008A000C1F3130141F480154FF0000BD10702D1C1
:1008B00000186D41521E0027044640F2FF113846D1
:1008C00001EB620A3E468046024600204FF480114A
:1008D000FFF723FFC2197141BB1846EB0100B4EBCF
:1008E000030C75EB000C04D3E41A65EB0005174606
:1008F0000E46241908F101006D4180463428E3DDDD
:10090000F91946EB0600091BA84103D24FF0FF324C
:10091000134601E0002213461BEB070046EB0A5189
:10092000BDE8F04DFFF752BFC1F30A52C1F3130106
:1009300040F2FF3341F480119A4202DA002001466E
:10094000704740F233439A42A2F2334202DC5242F1
:10095000FFF7E3BEFFF7D2BE30B5041E71F100040D
:1009600004DB4FF00044404264EB0101141E73F1BC
:10097000000405DB1C464FF00043524263EB0403C6
:10098000994208BF904230BD064C074D06E0E06832
:1009900040F0010394E8070098471034AC42F6D3C6
:1009A000FFF7F6FB08AF010828AF010870B58D18F6
:1009B00010F8014B14F0030201D110F8012B2311A0
:1009C00006D110F8013B03E010F8016B01F8016B50
:1009D000521EF9D1ABB110F8012B04F00C048A1AA5
:1009E0000C2C03D0A2EB84129B1C08E010F8014BE6
:1009F000A2EB0422F8E712F8014B01F8014B5B1E51
:100A0000F9D5A942D4D3002070BD00BFFEE7000095
:100A100010B5024800F026FD10BD0000CC0F0020EC
:100A200010B5024800F01EFD10BD0000CC0F0020E4
:100A300010B52DED048B2C4A2C492DA011F003FB91
:100A400029490968096A891E274A1268528901FBE7
:100A500002F0FFF7D0FD41EC190B9FED260B53EC94
:100A6000102BFFF7D6FC41EC180BFFF7D1FD234903
:100A700008601E2013F0E4FA0446204820A1026812
:100A800020460FF02BFC20460BF06EFC204612F0A7
:100A90003FFD154909684989144A126801FB02F0B3
:100AA000FFF7A9FD41EC190B9FED120B53EC102B36
:100AB000FFF7AFFC41EC180BFFF7AAFD16490860E1
:100AC0001E2013F0BDFA0446134814A10268204604
:100AD0000FF004FC20460BF047FC204612F018FDF6
:100AE000BDEC048B10BD0000440F0020480F002017
:100AF00000000000000000000000E03F4C0F00205C
:100B00005553422020546F74616C2053697A653AC2
:100B10002009256C750A0000500F00205553422013
:100B2000467265652053706163653A2009256C75CE
:100B30000A00000070B50446204611F03BFB154941
:100B400008700846007878B9642013F079FA0546F1
:100B5000224611A128460FF0C1FB28460BF004FCE9
:100B6000284612F0D5FC11E0642013F069FA05461E
:100B700023460848027812A128460FF0AFFB28460A
:100B80000BF0F2FB284612F0C3FC00BF01480078CE
:100B900070BD0000380F00202A25732A2068617379
:100BA000206265656E20637265617465642073758B
:100BB000636365737366756C6C790A0A00000000E4
:100BC0004552524F52204E6F2E20256420696E20D0
:100BD0006372656174696E67206469726563746FBE
:100BE0007279202A25732A0A0A00000070B504468B
:100BF0003A49204611F05FFE3949087008460078EE
:100C000088B9642013F01CFA0546224635A128460F
:100C10000FF064FB28460BF0A7FB284612F078FC87
:100C20002F48007870BD0B2221463C4811F0D8FBBC
:100C30002B4908700846007898B1642013F000FA38
:100C4000054623462648027835A128460FF046FB84
:100C500028460BF089FB284612F05AFC2048007801
:100C6000E0E7642013F0ECF90546224636A1284659
:100C70000FF034FB28460BF077FB284612F048FCB7
:100C800000BF264811F0B6F91549087008460078EB
:100C900088B1642013F0D4F9054623461048027841
:100CA00039A128460FF01AFB28460BF05DFB2846B9
:100CB00012F02EFC0FE0642013F0C2F90546224624
:100CC0003AA128460FF00AFB28460BF04DFB2846B8
:100CD00012F01EFC00BF02480078A3E7D0580020A5
:100CE000380F00204552524F52212121202A2573CE
:100CF0002A20616C72656164792065786973747308
:100D0000212121210A207573652055706461746565
:100D10005F46696C65200A0A00000000686E0020CA
:100D20004552524F52212121204E6F2E2025642002
:100D3000696E206372656174696E672066696C65AF
:100D4000202A25732A0A0A002A25732A206372653D
:100D500061746564207375636365737366756C6C29
:100D6000790A204E6F772075736520577269746514
:100D70005F46696C6520746F2077726974652064C2
:100D80006174610A000000004552524F52204E6FBC
:100D90002E20256420696E20636C6F73696E672056
:100DA00066696C65202A25732A0A0A0046696C6503
:100DB000202A25732A20434C4F53454420737563E2
:100DC0006365737366756C6C790A0A0010B5024826
:100DD00000F0CEFE10BD0000AC13002010B502489C
:100DE00000F0C6FE10BD00002C15002010B5024812
:100DF00000F0BEFE10BD0000EC12002010B502484D
:100E000000F0B6FE10BD0000CC14002010B5024862
:100E100000F0AEFE10BD00008C12002010B502489C
:100E200000F0A6FE10BD0000D810002010B502484A
:100E300000F09EFE10BD00004C13002010B50248CB
:100E400000F096FE10BD00006C14002010B50248A2
:100E500000F08EFE10BD00008C15002010B5024879
:100E600000F086FE10BD00000C140020014608783A
:100E700010381823B0FBF3F20848805CC865032AD9
:100E800005D908686FF30900001D886503E008684C
:100E90006FF309008865886D704700009CA2010807
:100EA000014600208A6A8B69CBB932B1012A0DD084
:100EB000022A03D0032A10D10EE000BFCB6A03F050
:100EC0008073B3F1807F00D1012007E0CB6AB3F1DA
:100ED000C07F00D1012001E000E000BF34E08B6959
:100EE000B3F5005F1AD132B1012A07D0022A03D02C
:100EF000032A11D10AE000BF01200EE0CB6A03F003
:100F00008073B3F1807F00D1012006E0CB6AB3F19A
:100F1000C07F00D1012000E000BF15E032B1012AFE
:100F200005D0022A04D0032A0CD103E000BF00BF81
:100F3000012008E0CB6A03F08073B3F1807F00D119
:100F4000012000E000BF00BF704730B5046824688E
:100F500024F4802405682C60046863608468402C55
:100F600004D10468A2600468E16003E00468A16041
:100F70000468E26030BD0146002200BF05E00023A6
:100F800001F5617040F82230521C0F2AF7D300227D
:100F900004E0002301F58E708354521CB2F5007FEB
:100FA000F7D3002008704870012088700020C1F835
:100FB000C40301230B7640238B7100234B7681F809
:100FC0001C33012381F81D33002381F81F3381F87E
:100FD0001E337047704772B600BFFEE730B5044657
:100FE0000D4600222946204600F002F830BD0000E0
:100FF000F0B50346012500241148407A01281CDA87
:1010000000200F4E767A0E4FB8553846467A001DAE
:1010100040F82630001F467A083082553E46707AE6
:10102000461C7E72044604F1300008703A20487075
:101030002F2088700020C87000252846F0BD0000D1
:101040001C8A002010B5024692F82030012B01D0F6
:10105000022B06D1106840690843146860610020C3
:1010600010BD506A40F4802050620120F8E7F0B5CE
:1010700004460D461E4694F8207020688368A868D0
:1010800000B900E000BF012F01D0022F7CD103F096
:10109000806030B903F0006018B903F08050002878
:1010A00073D0C3F30161022905D9606A40F40000DE
:1010B00060620120F0BD012088403060A86860B9FE
:1010C000B5F800C0E86840EA4C5C206800F5C070E4
:1010D00000EB0110C0F800C00FE0D5E901C040EA04
:1010E000CC00D5F80CC040EA0C00D4F800C00CF5D8
:1010F000C07C0CEB011CCCF80000D5F810C02068B7
:1011000000F5C07000EB0110C0F804C0287D012874
:101110000ED1206800F5C07000EB0110406840F46B
:10112000807C206800F5C07000EB0110C0F804C09E
:10113000D079000692F806C040EA0C4092F805C04B
:1011400040EA0C2C10794CEA000C206800F5C070C5
:1011500000EB0110C0F80CC0D078000692F802C075
:1011600040EA0C4092F801C040EA0C2092F800C01E
:1011700040EA0C00D4F800C00CF5C07C0CEB011C5C
:10118000CCF80800206801E016E00FE000F5C07020
:1011900000EB0110006840F0010C206800F5C07001
:1011A00000EB0110C0F800C0002083E7606A40F443
:1011B0000010606201207DE7606A40F48020606278
:1011C000012077E7F0B504460A46216894F82050DC
:1011D000012D01D0022D7ED1424901F50071086830
:1011E00040F001000860086820F47C50086008683E
:1011F000566A40EA06200860107D00F01F060120B4
:1012000000FA06F3C8699843C861A1F50071D06976
:10121000C8B9D1F80C029843C1F80C02908880B28A
:10122000968940EA064601F51070576940F8376024
:10123000108880B2168940EA064601F51070576999
:1012400000EBC7004660D069012819D1D1F80C0223
:101250001843C1F80C02908880B2168840EA06460E
:1012600001F51070576940F83760908980B216898F
:1012700040EA064601F51070576900EBC70046606A
:10128000906928B9D1F804029843C1F8040204E037
:10129000D1F804021843C1F80402106928B9D1F842
:1012A00014029843C1F8140204E0D1F81402184360
:1012B000C1F81402106A012804D1D1F81C021843A5
:1012C000C1F81C02D1F8000220F00100C1F80002B0
:1012D0000020F0BDFFE7606A40F4802060620120DA
:1012E000F7E7000000640040704770B5044694F8CA
:1012F0002050012D01D0022D7DD151B92068C06848
:1013000000F0030080B9606A40F4001060620120C0
:1013100070BD2068006900F0030028B9606A40F4DD
:10132000001060620120F3E7206800F5D87000EB40
:101330000110006800F004009060906840B92068D7
:1013400000F5D87000EB01100068400D106007E058
:10135000206800F5D87000EB01100068C0085060EC
:10136000206800F5D87000EB0110006800F0020062
:10137000D060206800F5D87000EB0110406800F0E4
:101380000F001061206800F5D87000EB0110406874
:1013900000F47F40000A9061206800F5D87000EBEF
:1013A00001104068000C5061206800F5D87000EB17
:1013B000011080681870206800F5D87000EB0110EB
:1013C000806800F47F40000A5870206800F5D870EB
:1013D00000EB0110806800F47F00000C987020681A
:1013E00000F5D87000EB01108068000ED8702068FE
:1013F00000F5D87000E02FE000EB0110C068187114
:10140000206800F5D87000EB0110C06800F47F4040
:10141000000A5871206800F5D87000EB0110C06810
:1014200000F47F00000C9871206800F5D87000EB84
:101430000110C068000ED87131B92068C06840F052
:1014400020002668F06005E02068006940F0200078
:101450002668306100205BE7606A40F480206062AB
:10146000012055E72DE9F05F044600252068466914
:101470002068D0F80490206887682068D0F80CA015
:101480002068D0F810B02068D0F8188006F001006D
:10149000002855D007F00100C0B101202168886004
:1014A00007F0020018B1204600F08CFA0EE007F0B9
:1014B000040010B145F4006508E007F0080010B121
:1014C00045F4805502E0204600F07AFA07F4807077
:1014D000C8B14FF480702168886007F4007018B1BB
:1014E000204600F0A0FA0EE007F4806010B145F449
:1014F000005508E007F4006010B145F4804502E0B3
:10150000204600F08FFA07F48030C8B14FF48030E5
:101510002168886007F4003018B1204600F085FA91
:101520000EE007F4802010B145F4004508E007F410
:10153000002010B145F4803502E0204600F074FA36
:1015400006F0080038B10AF0100020B145F400752B
:1015500010202168C86006F0040040B10AF00800BD
:1015600028B108202168C860204600F0C1F906F0C3
:10157000020038B12068C06800F0030010B12046B6
:1015800000F0B8F906F0400038B10BF0100020B1BF
:1015900045F4806510202168086106F0200040B104
:1015A0000BF0080028B1082021680861204600F0EF
:1015B000D5F906F0100038B12068006900F003008A
:1015C00010B1204600F0CBF906F4003040B109F02C
:1015D000100028B1102021684860204600F0C0F9B2
:1015E00006F4803040B109F0080028B108202168D5
:1015F0004860204600F01AFA06F4004088B309F06B
:10160000040078B306F4807020B108F0010008B13E
:1016100045F0010506F4007020B108F0020008B1A1
:1016200045F0020506F4806020B108F0040008B11E
:1016300045F0040506F40060A0B108F0700088B120
:1016400008F07000402817D006DC10280BD02028A6
:101650000CD0302819D10CE0502810D0602814D1BB
:1016600010E01DE019E045F008050FE045F0100519
:101670000CE045F0200509E045F0400506E045F0A6
:10168000800503E045F4807500E000BF00BF2068DE
:10169000806920F07000216888610420216848601A
:1016A0002DB1606A284360622046FFF71DFEBDE849
:1016B000F09F70B504460CB9012070BD94F820006D
:1016C00010B9204600F0B0F82068006820F0020051
:1016D0002168086000F00CFE05460DE000F008FEF1
:1016E000401B0A2808D9606A40F400306062052077
:1016F00084F820000120E0E72068406800F0020044
:101700000028EBD12068006840F0010021680860E3
:1017100000F0EEFD05460DE000F0EAFD401B0A2852
:1017200008D9606A40F400306062052084F8200027
:101730000120C2E72068406800F001000028EBD0DB
:10174000207E012806D12068006840F080002168D2
:10175000086005E02068006820F0800021680860CB
:10176000607E012806D12068006840F040002168B2
:10177000086005E02068006820F0400021680860EB
:10178000A07E012806D12068006840F02000216872
:10179000086005E02068006820F0200021680860EB
:1017A000E07E012806D12068006820F01000216842
:1017B000086005E02068006840F0100021680860BB
:1017C000207F012806D12068006840F008002168C9
:1017D000086005E02068006820F0080021680860C3
:1017E000607F012806D12068006840F0040021686D
:1017F000086005E02068006820F0040021680860A7
:10180000D4E902010843216908436169084361681A
:10181000491E08432168C86100206062012084F8E5
:101820002000002049E7000010B586B004461421CE
:1018300001A8FEF711FD2B49206888424FD100BF57
:10184000002000902848006840F080602649086029
:101850000846006800F08060009000BF00BF00BF35
:10186000002000900846006840F0007008600846BC
:10187000006800F00070009000BF00BF00BF0020B3
:10188000009019481038006840F0020016491039DD
:1018900008600846006800F00200009000BF00BF2A
:1018A0004FF440500190022002900020039003204A
:1018B00004900920059001A90C4800F0FFFB0022CC
:1018C00011463F2001F02EFC3F2001F01BFC0022BE
:1018D0001146402001F026FC402001F013FC06B028
:1018E00010BD000000680040403802400004024083
:1018F0007047000010B50446144BA3F124020021E8
:101900002046FFF7F2FC38B1012110483C3880F83E
:10191000521104F0FDFD06E000210C483C3880F82F
:10192000521180F8531109483C38816A0848816097
:1019300006493C39064A8869064912F038F918B157
:10194000054904480FF0A5FA10BD0000341A002024
:101950006C1C00205C1B0020AC1D002070477047F1
:10196000704770B5044694F82000012822D1022067
:1019700084F820002068006820F0010021680860D9
:1019800000F0B6FC05460DE000F0B2FC401B0A2852
:1019900008D9606A40F400306062052084F82000B5
:1019A000012070BD2068406800F001000028EBD1E4
:1019B0006062F6E7606A40F4002060620120F0E7B0
:1019C0007047000070B50546154890F84E1190F824
:1019D0004D0181421BDA124890F84D1190F84E01EA
:1019E000081AC4B2082C00DD08240D4890F84E01F6
:1019F0002044C1B20A4880F84E1190F84E01001BF5
:101A0000C1B2224606484D3004F046FE07E00021F0
:101A1000034880F84E110120014981F8480070BD4B
:101A2000F81900207047704770477047704770B5CD
:101A30000446A56D00F05CFC064694F835000228CB
:101A400008D08020606500BF002084F8340000BF0B
:101A5000012070BD2068006820F016002168086031
:101A60002068406920F0800021684861206C08B936
:101A7000A06C28B12068006820F008002168086088
:101A80002068006820F00100216808600FE000F085
:101A90002FFC801B05280AD92020606500BF00208C
:101AA00084F8340000BF032084F83500D1E72068B3
:101AB000006800F001000028E9D194F85C103F2094
:101AC0008840A86000BF002084F8340000BF0120D7
:101AD00084F835000020BCE7014691F83500022863
:101AE00003D08020486501207047052081F835002B
:101AF0000868006820F001000A6810600020F3E721
:101B000070B504460CB9012070BD94F83500022868
:101B100000D1F9E72068006820F001002168086022
:101B20000020216808602168486021688860216879
:101B3000C860216808612120216848612046FFF7BC
:101B400095F905460020E06320646064A064E064C9
:101B5000206594F85C103F208840A86000206065F4
:101B600084F8350000BF84F8340000BF00BFCBE725
:101B7000F8B50446002000908C4800684FF41651D8
:101B8000B0FBF1F7A56D2E6894F85C100820884032
:101B9000304098B12068006800F0040070B12068FF
:101BA000006820F004002168086094F85C100820A8
:101BB0008840A860606D40F00100606594F85C109A
:101BC00001208840304068B12068406900F0800002
:101BD00040B194F85C1001208840A860606D40F02E
:101BE0000200606594F85C1004208840304068B1C1
:101BF0002068006800F0020040B194F85C100420F6
:101C00008840A860606D40F00400606594F85C1046
:101C100010208840304078B32068006800F0080049
:101C200050B394F85C1010208840A86020680068C9
:101C300000F4802080B12068006800F4002028B9FA
:101C4000206CC8B12046216C884715E0A06C98B183
:101C50002046A16C88470FE02068006800F480707F
:101C600028B92068006820F0080021680860206C0E
:101C700010B12046216C884794F85C1020208840E1
:101C80003040002865D02068006800F0100000286F
:101C90005FD094F85C1020208840A86094F835004C
:101CA000052828D12068006820F016002168086007
:101CB0002068406920F0800021684861206C08B9E4
:101CC000A06C28B12068006820F008002168086036
:101CD00094F85C103F208840A86000BF002084F882
:101CE000340000BF012084F83500206D10B120467B
:101CF000216D8847F8BD2068006800F4802080B11D
:101D00002068006800F4002028B9606C10B12046FB
:101D1000616C88471DE0E06BD8B12046E16B8847D5
:101D200017E02068006800F4807068B920680068D7
:101D300020F010002168086000BF002084F8340003
:101D400000BF012084F83500E06B10B12046E16B44
:101D50008847606D38B3606D00F00100F0B1052078
:101D600084F835002068006820F0010021680860D0
:101D700000BF0098401C0090B84200D905E02068E0
:101D8000006800F001000028F3D100BF00BF002070
:101D900084F8340000BF012084F83500E06C10B1F5
:101DA0002046E16C884700BFA4E70000900F0020A8
:101DB0002DE9F0410446002500F09AFA074614B9CF
:101DC0000120BDE8F081606A00B100BF00BF0020C3
:101DD00084F8340000BF022084F8350020680068D1
:101DE00020F00100216808600AE000F081FAC01BC1
:101DF000052805D920206065032084F83500E0E738
:101E00002068006800F001000028EED12068056815
:101E100021480540D4E901010843E16808432169EC
:101E2000084361690843A1690843E1690843216ADD
:101E300008430543606A042803D1D4E90B01084331
:101E40000543206805602068456925F00705606A3C
:101E50000543606A04280DD1A06A0543E06A48B1D1
:101E60002046FFF71DF828B140206065012084F866
:101E70003500A6E7206845612046FEF7F7FF0646D5
:101E800094F85C103F208840B0600020606501201D
:101E900084F83500002094E73F8010F02DE9F047EA
:101EA00004460D4616461F464FF00008D4F85890D9
:101EB00000BF94F83400012802D10220BDE8F08769
:101EC000012084F8340000BF94F83500012825D1A2
:101ED000022084F83500002060653B4632462946E2
:101EE0002046FFF732F894F85C103F208840C9F88C
:101EF00008002068006840F0160021680860206C27
:101F000028B12068006840F0080021680860206857
:101F1000006840F001002168086006E000BF002072
:101F200084F8340000BF4FF002084046C6E70000C6
:101F300070B5044600F0DCF906462546681C10B171
:101F400004480078054400BF00F0D2F9801BA84285
:101F5000FAD370BD8C0F0020F0B50C46002500228E
:101F60000023002192E0012606FA01F504EA0502A9
:101F7000AA427DD1474E8F0856F827308E07370F7B
:101F80000F26BE403340444EB04201D1002623E02C
:101F9000424EB04201D101261EE0414EB04201D175
:101FA000022619E03F4EB04201D1032614E03E4E16
:101FB000B04201D104260FE03C4EB04201D10526CB
:101FC0000AE03B4EB04201D1062605E0394EB04250
:101FD00001D1072600E008268F073F0FBE409E4232
:101FE00022D1354E36689643334F3E603E1D3668EB
:101FF00096433F1D3E603E1D366896433F1D3E6042
:102000003E1D366896433F1D3E608E07370F0F26F4
:1020100006FA07F31F4E8F0856F827609E431D4FA0
:102020004FEA910C47F82C6006684FEA410C0327F1
:1020300007FA0CF7BE430660CF0800F1200656F8F9
:1020400027604F074FEAD76C0F2707FA0CF7BE43FC
:102050004FEAD10C00F1200747F82C60C6684FEA20
:10206000410C032707FA0CF7BE43C660466800E040
:102070000BE001278F40BE43466086684FEA410C63
:10208000032707FA0CF7BE438660491C1029FFF4AA
:102090006AAFF0BD08380140000002400004024071
:1020A00000080240000C02400010024000140240F0
:1020B00000180240001C0240003C0140F8B50246F6
:1020C0000B460025002400200021DEE0012606FA50
:1020D00001F51E6806EA0504AC4275D11E7906F0CA
:1020E0000306012E04D01E7906F00306022E13D13A
:1020F00090684F000326BE40B0434F00DE68BE40EC
:1021000030439060506801268E40B0431E79C6F37C
:1021100000168E40304350601E7906F00306032EF1
:1021200009D0D0684F000326BE40B0434F009E68E0
:10213000BE403043D0601E7906F00306022E13D154
:10214000CF0802F1200656F827004E07F70E0F269B
:10215000BE40B0434F07FF0E1E69BE403043CF085C
:1021600002F1200646F8270010684F000326BE4003
:10217000B0431E7906F003064F00BE4030431060A6
:102180005E6806F08056B6F1805F7DD100BF002604
:102190000096404E366846F480463E4F3E603E46CE
:1021A000366806F48046009600BF00BF3A4E8F089E
:1021B00056F827008E07370F0F26BE40B043374E24
:1021C000B24202D1002624E05EE0354EB24201D197
:1021D00001261EE0334EB24201D1022619E0324EF2
:1021E000B24201D1032614E0304EB24201D104269E
:1021F0000FE02F4EB24201D105260AE02D4EB24229
:1022000001D1062605E02C4EB24201D1072600E09E
:1022100008268F073F0FBE4030431F4E8F0846F8F9
:102220002700264E3068A0435E6806F48036B6F577
:10223000803F00D12043214E3060361D3068A043DE
:102240005E6806F40036B6F5003F00D120431B4E11
:10225000361D3060361D3068A0435E6806F4801677
:10226000B6F5801F00D12043144E08363060361D6D
:102270003068A0435E6806F40016B6F5001F00D172
:1022800020430E4E0C363060491C1029FFF41EAF5F
:10229000F8BD000044380240083801400000024008
:1022A0000004024000080240000C024000100240FE
:1022B0000014024000180240001C0240003C014093
:1022C000024613690B400BB1012000E0002070476B
:1022D00010B5426921EA020302EA010443EA044319
:1022E000836110BD0AB1816101E00B048361704715
:1022F0000148006870470000840F002010B50446B4
:10230000D4F800030BF0ADF910BD10B50446D4F8B5
:1023100000030BF0B1F910BD10B5044620680DF0B4
:1023200013F910BD10B5044620680DF014F910BD66
:10233000024601EB410000EBC10302F1380000EB63
:10234000830090F828007047024601EB410000EB43
:10235000C10302F1380000EB83008069704770B55B
:1023600004460D46002600BF94F8F802012801D16A
:10237000022070BD012084F8F80200BF29462068C1
:102380000DF0FAF800BF002084F8F80200BF3046D4
:10239000EFE72DE9FE4F04460D4616461F46DDE9E0
:1023A0000D9ADDF8308000BF94F8F802012802D1C0
:1023B0000220BDE8FE8F012084F8F80200BF002152
:1023C00005EB450000EBC50204F1380000EB82008C
:1023D000417105EB450000EBC50104F1380000F840
:1023E000217005EB450000EBC50104F1380000EB5E
:1023F0008100A0F808A005EB450000EBC50104F141
:10240000380000EB8100457005EB450000EBC5018D
:1024100004F1380000EB810080F8079006F07F019E
:1024200005EB450000EBC50204F1380000EB82002B
:10243000817006F0800080280AD1012105EB45005B
:1024400000EBC50204F1380000EB8200C17009E026
:10245000002105EB450000EBC50204F1380000EB5C
:102460008200C17005EB450000EBC50104F13800A6
:1024700000EB810080F804808DE800073B4632467F
:10248000294620680DF050F9834600BF002084F8EB
:10249000F80200BF58468CE770472DE9F05F04460C
:1024A0000D4616461F46DDE90C9BDDE90A8A05EB61
:1024B000450000EBC50104F1380000EB8100C67057
:1024C00005EB450000EBC50104F1380000EB81008D
:1024D000C771B8F1000F14D1032105EB450000EBE3
:1024E000C50204F1380000EB8200817205EB450063
:1024F00000EBC50104F1380000EB810080F805B065
:1025000009E0022105EB450000EBC50204F13800AB
:1025100000EB8200817237B1012F76D0022F33D0C9
:10252000032F73D173E0B8F1010F2CD106BBB9F1C1
:10253000000F09D1012105EB450000EBC50204F1B4
:10254000380000EB8200417705EB450000EBC50148
:1025500004F1380000EB8100407F50B9002105EB09
:10256000450000EBC50204F1380000EB82008172E7
:1025700009E0022105EB450000EBC50204F138003B
:1025800000EB820081728FE0FEB905EB450000EBA5
:10259000C50104F1380000EB8100407F50B90021F3
:1025A00005EB450000EBC50204F1380000EB8200AA
:1025B000817229E0022105EB450000EBC50204F120
:1025C000380000EB820081721EE005EB450000EB55
:1025D000C50104F1380000EB8100007F50B90021F3
:1025E00005EB450000EBC50204F1380000EB82006A
:1025F000817209E0022105EB450000EBC50204F100
:10260000380000EB820081724EE041E04BE0FEB901
:1026100005EB450000EBC50104F1380000EB81003B
:10262000407F50B9002105EB450000EBC50204F1E5
:10263000380000EB8200817229E0022105EB4500A1
:1026400000EBC50204F1380000EB820081721EE04D
:1026500005EB450000EBC50104F1380000EB8100FB
:10266000007F50B9002105EB450000EBC50204F1E5
:10267000380000EB8200817209E0022105EB450081
:1026800000EBC50204F1380000EB820081720BE020
:10269000002105EB450000EBC50204F1380000EB1A
:1026A0008200817200E000BF00BF05EB450000EB37
:1026B000C50104F1380000EB8100C0F80CA005EB67
:1026C000450000EBC50104F1380000EB8100C0F8C3
:1026D0001490002105EB450000EBC50204F1380021
:1026E00000EB820080F8281005EB450000EBC502E6
:1026F00004F1380000EB8200816105EB450000EB3E
:10270000C50104F1380000EB81004570002105EBA4
:10271000450000EBC50204F1380000EB820080F8B0
:102720002910227C05EB450303EBC50C04F13803AB
:1027300003EB8C0120680DF0D1F8BDE8F09F2DE986
:10274000F0410446D4F80080474620680CF00FFFA3
:1027500001287DD120680DF04BFA08B9BDE8F08161
:1027600020680DF045FA00F40010B0F5001F03D109
:102770004FF400102168486120680DF039FA00F428
:102780008010B0F5801F03D14FF48010216848619C
:1027900020680DF02DFA00F08060B0F1806F03D159
:1027A0004FF080602168486120680DF021FA00F048
:1027B0000200022801D12168486120680DF018FA52
:1027C00000F00050B0F1005F0FD14FF000502168D1
:1027D0004861D7F8400400F0010030B92046FFF707
:1027E00094FD012120680DF0E1F920680DF000FA58
:1027F00000F08070B0F1807F02D1204603F094FA9F
:1028000020680DF0F5F900F00800082805D12046F1
:1028100000F0EEF808202168486120680DF0E8F922
:10282000C0F3001070B12068806920F010002168AA
:102830008861204603F0D3FA2068806940F01000D8
:102840002168886120680DF0D3F900F0007000E085
:1028500029E0B0F1007F26D120680DF037F8064658
:10286000002519E005F00F0101208840304090B1AB
:1028700007F5A06000EB4510006800F40040B0F5DB
:10288000004F04D1E9B2204602F0FBFA03E0E9B2BE
:10289000204602F0A7FE6D1CA068A842E2D84FF0C7
:1028A00000702168486100BF58E730B58BB004461E
:1028B00014B901200BB030BD256894F8F90228B98D
:1028C000002084F8F802204600F02AF8032084F85B
:1028D000F902E86B00F4807008B9002121612068DA
:1028E0000CF0AEFD282204F110016846FDF79BFCB8
:1028F00094E80F000CF03CFD012120680DF0ACF9CC
:10290000282204F110016846FDF78DFC94E80F00C1
:102910000DF0CCF8012084F8F9020020CAE700008D
:1029200010B586B00446142101A8FDF795FC206877
:10293000B0F1A04F42D100BF0020009020480068B5
:1029400040F001001E4908600846006800F00100E0
:10295000009000BF00BF4FF4C050019002200290D1
:1029600000200390032004900A20059001A9154837
:10297000FFF7A4FB00BF1248001D006840F0800074
:102980000F49091D086000BF002000900C4814305A
:10299000006840F480400A49143108600846006825
:1029A00000F48040009000BF00BF00BF002211462D
:1029B000432000F0B7FB432000F0A4FB06B010BD9D
:1029C000303802400000024010B50446D4F800033D
:1029D0000AF01CFF10BD10B50446D4F800030AF03D
:1029E00019FF10BD10B5044620680DF017F910BD91
:1029F00010B50446D4F800030AF0B1FE10BD10B5BE
:102A0000044600BF94F8F802012801D1022010BD4D
:102A1000012084F8F80200BF20680CF060FD01215D
:102A200020680CF037FD00BF002084F8F80200BFDA
:102A300000BFECE710B5044600BF94F8F802012887
:102A400001D1022010BD012084F8F80200BF2068E7
:102A50000DF01DF900BF002084F8F80200BF00BF90
:102A6000F0E7000070B504460CB9012070BD94F881
:102A70003D0028B9002084F83C00204600F068FAA8
:102A8000242084F83D002068006820F001002168BF
:102A900008602068006840F40040216808602068F1
:102AA000006820F400402168086000F025FD05461C
:102AB0005C496068884206D85B48854201D20120A3
:102AC00007E0002005E05948854201D2012000E0DE
:102AD0000020012800D1C9E75548B5FBF0F6206871
:102AE000406820F03F003043216848604D496068ED
:102AF000884201D8701C07E04FF4967070434FF481
:102B00007A71B0FBF1F0401C2168096A21F03F01A5
:102B100008432168086243496068884214D8681EE7
:102B200061684900B0FBF1F0401CC0F30B000428C1
:102B300001D204203DE0681E61684900B0FBF1F05D
:102B4000401CC0F30B0034E0A06838B9681E61680F
:102B500001EB4101B0FBF1F0401C0AE0681E616826
:102B600001EBC10202EB0111B0FBF1F0401C40F49B
:102B70008040C0F30B0008B901201AE0A06848B9F2
:102B8000681E616801EB4101B0FBF1F0401CC0F32D
:102B90000B000CE0681E616801EBC10202EB011141
:102BA000B0FBF1F0401CC0F30B0040F4804040F457
:102BB00000402168C9694CF6FF72914308432168BF
:102BC000C861D4E9070108432168096821F0C00100
:102BD000084321680860D4E9031008432168896824
:102BE00048F2FF329143084321688860D4E9050127
:102BF00008432168C96821F0FF0108432168C860C3
:102C00002068006840F0010021680860002020640E
:102C1000202084F83D000020206384F83E0000BF9F
:102C200024E70000A086010080841E0000093D000A
:102C300040420F002DE9F84F04460F4690461E46CD
:102C4000FFF756FB05464FF0010994F83D00202898
:102C50007ED11923012263492046009503F040FAF2
:102C600010B10220BDE8F88F00BF94F83C000128A5
:102C700001D10220F6E7012084F83C0000BF206863
:102C8000006800F0010028B92068006840F00100E9
:102C9000216808602068006820F4006021680860EE
:102CA000242084F83D00002020644F48E06200BFEB
:102CB0002068006840F48070216808603346002274
:102CC0004FF001112046009503F00AFA58B1206830
:102CD000006800F48070B0F5807F02D14FF400707E
:102CE00020640320BEE707F0FE0021680861FFF7BB
:102CF000FFFA054620684069C0F3400A2068406931
:102D0000C0F3802B10E0FFF7F3FA401BB04200D86D
:102D100016B9A02084F83D0020684069C0F3400A3D
:102D200020684069C0F3802B94F83D00A02805D0AE
:102D3000BAF1000F02D1BBF1000FE4D0202084F8DB
:102D40003D0020684069C0F3400028B3206800E0DF
:102D500045E0006840F400702168086000BF002072
:102D6000009020684069009020688069009000BF52
:102D700000BF192301221B492046009503F0B0F93A
:102D800008B101206EE7202084F83D0000BF00203C
:102D900084F83C0000BF65E72068006840F40070DC
:102DA000216808606FF4806021684861192301225E
:102DB0000C492046009503F093F908B1012051E732
:102DC00009F10109C145FFF473AF202084F83D00EB
:102DD00000BF002084F83C0000BF012042E7022031
:102DE00040E70000020010000000FFFF2DE9FC5F3B
:102DF00004460F4690469946DDE90CAB0E9EFFF760
:102E000077FA054694F83D0020287DD11923012248
:102E10004D492046009503F063F910B10220BDE84A
:102E2000FC9F00BF94F83C00012801D10220F6E786
:102E3000012084F83C0000BF2068006800F0010019
:102E400028B92068006840F0010021680860206807
:102E5000006820F4006021680860212084F83D00AB
:102E6000402084F83E0000202064C4F824A0A4F888
:102E70002AB0608D20853548E0624B46424639468F
:102E80002046CDE9006503F08DF808B10120C6E7C2
:102E900031E02A463146204603F0C7F950B1206C94
:102EA000042805D12068006840F40070216808609B
:102EB0000120B4E7606A007821680861606A401CFC
:102EC0006062208D401E2085608D401E60852068D8
:102ED0004069C0F3800070B1208D60B1606A0078F5
:102EE00021680861606A401C6062208D401E208558
:102EF000608D401E6085208D0028CAD12A4631464B
:102F0000204603F0BFF800E01CE050B1206C04281C
:102F100005D12068006840F4007021680860012035
:102F20007DE72068006840F4007021680860202078
:102F300084F83D00002084F83E0000BF84F83C0087
:102F400000BF6CE702206AE7020010000000FFFFEC
:102F500010B586B00446142101A8FDF77DF91B4980
:102F6000206888422FD100BF0020009018480068D8
:102F700040F00200164908600846006800F00200B0
:102F8000009000BF00BFC0200190122002900120DD
:102F90000390032004900420059001A90D48FFF739
:102FA0008DF800BF0020009009481030006840F400
:102FB00000100749103108600846006800F400104E
:102FC000009000BF00BF06B010BD000000540040DC
:102FD0003038024000040240034800680349097881
:102FE0000844014908607047840F00208C0F0020BE
:102FF00010B50D48006840F400700B4908600846A1
:10300000006840F4806008600846006840F4807002
:103010000860032000F0C4F8002000F007F800F07A
:103020002BF8002010BD0000003C024070B50446A3
:103030000E4800784FF47A71B1FBF0F00C49096842
:10304000B1FBF0F5284600F01DFD08B1012070BD70
:10305000102C07D200222146501E00F063F80548CC
:10306000046001E00120F2E70020F0E78C0F00206F
:10307000900F0020880F002008B500BF00200090AE
:103080000E48006840F480400C490860084600681B
:1030900000F48040009000BF00BF00BF00200090FF
:1030A000081F006840F08050091F0860084600684B
:1030B00000F08050009000BF00BF08BD44380240BF
:1030C00010B501460846002817DB00F01F03012257
:1030D0009A400B4B440943F8242000BF00BF00BFB7
:1030E000BFF34F8F00BF00BF00BF00BF00BF00BFD6
:1030F000BFF36F8F00BF00BF00BF00BF10BD000057
:1031000080E100E001460846002809DB00F01F03CB
:1031100001229A4043099B0003F1E023C3F80021F8
:1031200000BF70472DE9F05F80460D461646002728
:103130000DF0E8F8074639462A46334601F0070005
:10314000C0F1070ABAF1040F02D94FF0040A01E0F6
:10315000C0F1070AD14600F1040ABAF1070F02D202
:103160004FF0000A01E0A0F1030AD4464FF0010A33
:103170000AFA09FAAAF1010A0AEA020A0AFA0CFA98
:103180004FF0010B0BFA0CFBABF1010B0BEA030B3D
:103190004AEA0B04214640460DF0BCF8BDE8F09F1A
:1031A00000BF00F00702064B19684FF6FF031940F5
:1031B000044B0B4343EA0221014B196000BF7047E7
:1031C0000CED00E00000FA05F8B5044600250026E5
:1031D000207800F0010020B9207800F004000428D5
:1031E0002FD100205B498866FFF782F8054606E08C
:1031F000FFF77EF8401B022801D90320F8BD56488E
:103200000068C0F3C0600028F2D160688101207AB4
:1032100041EA007050498431086001204D498866B8
:10322000FFF766F8054606E0FFF762F8401B022844
:1032300001D90320E2E748480068C0F3C0600028D5
:10324000F2D0207800F0020002287DD100BF0020DB
:10325000009041484030006840F080503E49403185
:1032600008600846006800F08050009000BF00BF72
:103270003A48006840F4807038490860FFF738F831
:10328000054606E0FFF734F8401B022801D9032069
:10329000B4E73248006800F480700028F2D02E486D
:1032A0007030006800F440764EB3A08900F440709E
:1032B000B04224D028487030006820F440760120C5
:1032C00027490860002008602348703006600068C5
:1032D00000F0010098B1FFF70BF8054608E0FFF792
:1032E00007F8401B41F28831884201D9032085E765
:1032F000194870300068C0F340000028EFD000BFCC
:10330000A08900F44070B0F5407F0CD1124808301D
:10331000006820F4F810134AE168114008430E4990
:103320000831086007E00C480830006820F4F81005
:10333000094908310860084870300068A189C1F364
:103340000B010843044900E002E07031086000BF4F
:10335000002053E700004742003802400070004060
:10336000400E4742FFFCFF0F70B504460D460CB9F6
:10337000012070BD5848006800F00700A84209D23B
:1033800055490D700846006800F00700A84201D0BA
:103390000120EEE7207800F0020002281DD12078FD
:1033A00000F00400042805D14C48006840F4E050C7
:1033B0004A490860207800F00800082805D14748ED
:1033C000006840F46040454908604448006820F0C7
:1033D000F000A168084341490860207800F001002E
:1033E000A8B36068012807D13C4808380068C0F3DA
:1033F0004040B8B90120BCE76068022802D060688C
:10340000032807D1354808380068C0F3406048B940
:103410000120AEE7314808380068C0F3400008B921
:103420000120A6E72D48006820F0030061680843EA
:103430002A490860FEF75CFF064609E0FEF758FFE0
:10344000801B41F28831884202D9032091E707E0CE
:103450002248006800F00C006168B0EB810FEDD1EC
:103460001D48006800F00700A84209D91A490D70EC
:103470000846006800F00700A84201D0012078E764
:10348000207800F00400042807D11448006820F4D4
:10349000E050E168084311490860207800F0080016
:1034A000082808D10D48006820F46040216940EAEE
:1034B000C1000A49086000F03FF808490968C1F3F3
:1034C0000311074A515CC840064908600648006875
:1034D000FFF7ACFD00204CE7003C024008380240FA
:1034E000A4A20108900F0020880F00200148006866
:1034F00070470000900F002000B5FFF7F7FF044968
:103500000968C1F38221034A515CC84000BD000034
:1035100008380240B4A2010800B5FFF7E7FF0449EC
:103520000968C1F34231034A515CC84000BD000044
:1035300008380240B4A201082DE9F0470024002514
:103540000026A1462548006800F00C0020B10428A0
:1035500005D008283AD105E0DFF8849039E0DFF89B
:10356000849036E01D48001F006800F03F041B48AF
:10357000001F006800F4800078B11A481749091F3D
:103580000968C1F38811A0FB01700146224600239F
:103590003846FCF717FE05460EE011480F49091F93
:1035A0000968C1F38811A0FB01700146224600237F
:1035B0003846FCF707FE05460848001F0068C0F3C0
:1035C0000140401C4600B5FBF6F902E0DFF8109020
:1035D00000BF00BF4846BDE8F08700000838024041
:1035E0000024F40000127A00F8B504460CB901205A
:1035F000F8BD207800F00100002874D0F948006878
:1036000000F00C0004280DD0F648006800F00C0013
:10361000082813D1F348001F006800F48000B0F5BB
:10362000800F0BD1EF4808380068C0F340400028F5
:1036300059D06068002856D10120D9E700BF6068E2
:10364000B0F5803F08D1E7480838006840F4803082
:10365000E449083908601EE06068B0F5A02F0DD17C
:10366000E0480838006840F48020DE4908390860E6
:103670000846006840F4803008600CE0D9480838FB
:10368000006820F48030D74908390860084600688F
:1036900020F48020086000BF606890B1FEF728FE2B
:1036A000054606E0FEF724FE401B642801D90320EE
:1036B0009EE7CC4808380068C0F340400028F1D0AD
:1036C00011E0FEF715FE054606E0FEF711FE401B71
:1036D000642801D903208BE7C24808380068C0F38A
:1036E00040400028F1D1207800F0020002285FD18C
:1036F000BC48006800F00C0058B1BA48006800F0FF
:103700000C0008281CD1B748001F006800F4800096
:10371000B0B9B44808380068C0F3400020B1E06890
:10372000012801D0012063E7AE480838006820F086
:10373000F800216940EAC100AA490839086037E069
:10374000E06800B30120A8490860FEF7D1FD0546F6
:1037500006E0FEF7CDFD401B022801D9032047E714
:10376000A04808380068C0F340000028F1D09D4808
:103770000838006820F0F800216940EAC100994942
:103780000839086014E0002097490860FEF7B0FD92
:10379000054606E0FEF7ACFD401B022801D90320D8
:1037A00026E7904808380068C0F340000028F1D1AF
:1037B000207800F0080008282CD16069A8B1012009
:1037C0008A490860FEF794FD054606E0FEF790FD85
:1037D000401B022801D903200AE782486C300068A8
:1037E000C0F340000028F1D014E000207F490860B9
:1037F000FEF77EFD054606E0FEF77AFD401B022837
:1038000001D90320F4E677486C300068C0F340002B
:103810000028F1D1207800F00400042870D100279E
:1038200070483830006800F0805090B900BF002028
:1038300000906C483830006840F080506949383159
:1038400008600846006800F08050009000BF00BF8C
:1038500001276748006800F48070B0B964480068C8
:1038600040F4807062490860FEF742FD054606E0BC
:10387000FEF73EFD401B022801D90320B8E65C4854
:10388000006800F480700028F2D000BFA068012812
:1038900008D154486830006840F00100514968314F
:1038A00008601DE0A06805280DD14E48683000680A
:1038B00040F004004B49683108600846006840F059
:1038C000010008600CE047486830006820F0010003
:1038D0004449683108600846006820F00400086028
:1038E00000BFA068A8B1FEF703FD054609E0FEF79A
:1038F000FFFC401B41F28831884202D9032077E661
:1039000026E0384868300068C0F340000028EED058
:1039100013E0FEF7EDFC054608E0FEF7E9FC401B6E
:1039200041F28831884201D9032061E62D48683090
:103930000068C0F340000028EFD1012F07D12948CB
:103940003830006820F0805026493831086000BFC8
:10395000A069002845D02348006800F00C00082822
:103960005DD0A069022845D100201F490866FEF7F6
:10397000BFFC054606E0FEF7BBFC401B022801D950
:10398000032035E6174808380068C0F34060002877
:10399000F1D1D4E907010843616A40EA81110122AB
:1039A000A06AC2EB500041EA00412C20005D41EAD0
:1039B00000600C49091F086001200B490866FEF7EA
:1039C00097FC054606E0FEF793FC401B022801D950
:1039D00003200DE6034808380068C0F34060002863
:1039E000F1D049E00838024000004742800E4742CB
:1039F00000700040002021490866FEF779FC05466A
:103A000006E0FEF775FC401B022801D90320EFE514
:103A10001B480068C0F340600028F2D12CE0A06988
:103A2000012800D1E4E51648001D0668A0690128B8
:103A300020D006F48001E06981421BD106F03F01ED
:103A4000206A814216D147F6C0703040616AB0EBFF
:103A5000811F0FD106F440310122A06AC2EB500051
:103A6000B1EB004F06D106F070612C20005DB1EB88
:103A7000006F01D00120BBE50020B9E500004742FE
:103A80000038024070B504462546681EB0F1807FBC
:103A900001D301200FE0681E4FF0E02148610F21A3
:103AA0004FF0FF300CF036FC00204FF0E021886131
:103AB00007200861002070BD7047704730B502468E
:103AC0000B4600BF92F83C00012801D1022030BD16
:103AD000012082F83C0000BF022082F83D001068FF
:103AE00044681068816824F0700418680443106802
:103AF0004460184D1068A8421BD01068B0F1804F88
:103B000017D0154D1068A84213D0144D1068A84264
:103B10000FD0134D1068A8420BD0124D1068A84268
:103B200007D0114D1068A84203D0104D1068A8426C
:103B300005D121F08001586801431068816001209F
:103B400082F83D0000BF002082F83C0000BF00BFAB
:103B5000BDE70000000001400004004000080040F4
:103B6000000C0040000401400040014000180040EB
:103B700010B504460CB9012010BD94F83D0028B9D9
:103B8000002084F83C00204600F026F8022084F84B
:103B90003D00211D206808F077FC012084F84600D4
:103BA00000BF84F83E0001213F200155402001550F
:103BB0004120015500BF00BF012084F8420043208E
:103BC0000155442001554520015500BF012084F8CE
:103BD0003D000020D0E7000038B504462B4920689E
:103BE000884236D100BF002000902948006840F08C
:103BF0000400274908600846006800F004000090AF
:103C000000BF00BF2348244908604FF0806048602F
:103C10004021214881600021C1604FF48061016131
:103C200089004161890081618911C1614902016294
:103C300004214162032181620021C1620163FEF718
:103C4000B7F808B1FDF7C7F900BF134820628463D5
:103C50001BE012492068884217D100BF0020009065
:103C60000B48006840F008000949086008460068F1
:103C700000F00800009000BF00BF00221146322073
:103C8000FFF750FA3220FFF73DFA38BD0008004038
:103C900040380240A0600240D8100020000C0040D4
:103CA000014691F83D00012801D001207047022013
:103CB00081F83D001A4B086898421BD00868B0F1A3
:103CC000804F17D0174B0868984213D0164B0868DE
:103CD00098420FD0154B086898420BD0144B0868D7
:103CE000984207D0134B0868984203D0124B0868DB
:103CF00098420CD10868806800F00702062A0CD0B0
:103D00000868006840F001000B68186005E008686A
:103D1000006840F001000B6818600020C6E7000052
:103D2000000001400004004000080040000C00407A
:103D30000004014000400140001800402DE9F0411E
:103D400004460D4600BF94F83C00012802D1022031
:103D5000BDE8F081012084F83C0000BF022084F817
:103D60003D002068866826F0770626F47F462068A6
:103D700086602868502833D00CDC202850D004DC22
:103D800000284BD0102851D149E0302849D0402894
:103D90004CD139E060282DD0702807D0B0F5805F75
:103DA00003D0B0F5005F41D10DE040E0D5E902134A
:103DB0006A68206808F0E5FB2068866846F07706A8
:103DC0002068866033E0D5E902136A68206808F04D
:103DD000D8FB2068806840F480402168886026E035
:103DE000EA686968206808F0BDFC5021206808F086
:103DF000D3FB1CE0EA686968206808F0C6FC602113
:103E0000206808F0C9FB12E0EA686968206808F0D9
:103E1000A9FC4021206808F0BFFB08E000BF00BFFC
:103E200000BF2968206808F0B7FB00E000BF00BFB2
:103E3000012084F83D0000BF002084F83C0000BF52
:103E400000BF85E7704710B5044620680069C0F3DD
:103E50004000D8B12068C068C0F34000B0B16FF036
:103E6000020021680861012020772068806900F045
:103E7000030018B12046FFF7E5FF05E0204600F0FB
:103E8000DDF8204600F08DF90020207720680069D9
:103E9000C0F38000D8B12068C068C0F38000B0B122
:103EA0006FF0040021680861022020772068806993
:103EB00000F4407018B12046FFF7C4FF05E020462B
:103EC00000F0BCF8204600F06CF900202077206854
:103ED0000069C0F3C000D8B12068C068C0F3C0005A
:103EE000B0B16FF0080021680861042020772068D5
:103EF000C06900F0030018B12046FFF7A3FF05E0FA
:103F0000204600F09BF8204600F04BF90020207777
:103F100020680069C0F30010D8B12068C068C0F301
:103F20000010B0B16FF01000216808610820207700
:103F30002068C06900F4407018B12046FFF782FF86
:103F400005E0204600F07AF8204600F02AF900202B
:103F500020772068006900F0010058B12068C0682F
:103F600000F0010030B16FF00100216808612046C7
:103F700000F09EF920680069C0F3C01058B12068B5
:103F8000C068C0F3C01030B16FF0800021680861D4
:103F90002046FFF791FD20680069C0F3801058B1FA
:103FA0002068C068C0F3801030B16FF04000216815
:103FB0000861204600F07DF920680069C0F34010D8
:103FC00058B12068C068C0F3401030B16FF02000D5
:103FD000216808612046FFF770FD10BD10B586B05E
:103FE0000446142101A8FCF737F9114920688842DA
:103FF0001CD100BF002000900E48006840F0020075
:104000000C4908600846006800F00200009000BFFC
:1040100000BF4815019002200290002003900490F8
:104020000220059001A90448FEF748F806B010BD2B
:10403000000800403038024000040240704770B56C
:1040400004460D46164600BF94F83C00012801D1F5
:10405000022070BD012084F83C0000BF36B1042E60
:104060001BD0082E31D00C2E5ED145E029462068A9
:1040700008F09CFA2068806940F008002168886197
:104080002068806920F004002168886120688069C8
:10409000296908432168886147E02946206808F0BB
:1040A000BDFA2068806940F400602168886120685A
:1040B000806920F4806021688861206880692969AE
:1040C00040EA0120216888612FE02946206808F035
:1040D000E3FA2068C06940F008002168C8612068E0
:1040E000C06920F004002168C8612068C06929699E
:1040F00008432168C86118E02946206808F008FBD9
:104100002068C06940F400602168C8612068C06907
:1041100020F480602168C8612068C069296940EA8C
:1041200001202168C86100E000BF00BF00BF00207F
:1041300084F83C0000BF00BF8BE710B504460CB903
:10414000012010BD94F83D0028B9002084F83C00FF
:10415000204600F025F8022084F83D00211D20684B
:1041600008F092F9012084F8460000BF84F83E0070
:1041700001213F200155402001554120015500BF3C
:1041800000BF012084F8420043200155442001551E
:104190004520015500BF012084F83D000020D0E7F4
:1041A0007047704770B504460D4615B994F83E0047
:1041B0000BE0042D02D13F20005D06E0082D02D166
:1041C0004020005D01E04120005D012801D0012078
:1041D00070BD1DB9022084F83E000EE0042D03D10D
:1041E00002213F20015508E0082D03D10221402083
:1041F000015502E002214120015501222946206893
:1042000008F0AEF923492068884203D0224920688B
:10421000884201D1012000E0002028B12068406CD4
:1042200040F40040216848641A49206888421BD045
:104230002068B0F1804F17D018492068884213D009
:104240001749206888420FD01649206888420BD051
:1042500011492068884207D013492068884203D05A
:104260001249206888420CD12068806800F0070657
:10427000062E0CD02068006840F00100216808601C
:1042800005E02068006840F0010021680860002017
:104290009EE70000000001400004014000040040CF
:1042A00000080040000C00400040014000180040A1
:1042B00070477047704710B504460CB9012010BD17
:1042C000242084F83D002068C06820F40050216854
:1042D000C860204600F070F90020206484F83D009A
:1042E00084F83E00206300BF84F83C0000BF00BF9C
:1042F000E5E770472DE9F84F044620680568206817
:10430000C668206847694FF00009CA4605F00F09E2
:10431000B9F1000F0AD105F0200038B106F02000F5
:1043200020B1204608F023FBBDE8F88FB9F1000F5B
:1043300072D007F0010018B906F4907000286BD015
:1043400005F0010030B106F4807018B1206C40F027
:104350000100206405F0040030B107F0010018B13D
:10436000206C40F00200206405F0020030B107F03C
:10437000010018B1206C40F00400206405F0080032
:1043800048B106F0200010B907F0010018B1206C08
:1043900040F008002064206C70B305F0200028B1C4
:1043A00006F0200010B1204608F0E1FA20684069CC
:1043B000C0F3801A206C00F0080010B9BAF1000FA9
:1043C00023D0204608F09EFA2068406900F04000A3
:1043D000402816D12068406920F0400021684861DB
:1043E000A06B50B15648A16B0865A06BFDF774FB3C
:1043F00010B1A06B016D88470CE02046FFF779FFF4
:1044000008E02046FFF775FF04E02046FFF771FF44
:104410000020206488E7FFE7206B012879D105F0B0
:104420001000002875D006F01000002871D000BFE1
:10443000002000902068006800902068406800908C
:1044400000BF00BF2068406900F04000402839D11B
:10445000A06B006840681FFA80F8B8F1000F30D0F8
:10446000A08D40452DDDA4F82E80A06BC069B0F56D
:10447000807F1FD02068C06820F480702168C860E9
:104480002068406920F00100216848612068406987
:1044900020F0400021684861202084F83E00002080
:1044A00020632068C06820F010002168C860A06BFD
:1044B000FDF7BDFAA08DE28D801A81B22046FFF78C
:1044C000F9FE31E7A08DE18D401A1FFA80F8E08DEA
:1044D000E8B1B8F1000F1AD02068C06820F49070DD
:1044E0002168C8602068406920F0010021684861A7
:1044F000202084F83E00002020632068C06820F05F
:1045000010002168C86041462046FFF7D3FE0BE744
:10451000FFE705F0800030B106F0800018B12046BA
:1045200008F0E6FB00E705F0400030B106F040007F
:1045300018B1204608F001FAF6E600BFF4E60000E4
:10454000D5C7000810B504460CB9012010BDA069FC
:1045500000B100E000BF94F83D0028B9002084F8C5
:104560003C00204600F0BEF8242084F83D0020687E
:10457000C06820F400502168C860204608F056FA50
:104580002068006920F49040216808612068406933
:1045900020F02A00216848612068C06840F400507B
:1045A0002168C86000202064202084F83D0084F841
:1045B0003E000020CAE7000010B504463F492068CD
:1045C000884214D13E48006820F400203C4908602D
:1045D0004FF440613B48FDF7BFFC606BFDF790FA7C
:1045E000A06BFDF78DFA3420FEF76AFD65E03649D1
:1045F0002068884217D13248006820F48010304982
:10460000086089142F48FDF7A7FC04212F48FDF707
:10461000A3FC606BFDF774FAA06BFDF771FA35200F
:10462000FEF74EFD49E02A492068884216D1244809
:10463000001D006820F010002149091D08604FF49A
:10464000C0612448FDF788FC606BFDF759FAA06B48
:10465000FDF756FA2520FEF733FD2EE01E492068AF
:10466000884214D11648006820F48020144908605C
:104670004FF440611948FDF76FFC606BFDF740FA9D
:10468000A06BFDF73DFA2720FEF71AFD15E014494F
:104690002068884211D10A48001D006820F02000DF
:1046A0000749091D0860C0210648FDF755FC606BED
:1046B000FDF726FA4720FEF703FD10BD004C004031
:1046C000403802400008024000500040000C024008
:1046D0000010014000000240004800400004024079
:1046E0000014014010B586B00446142101A8FBF760
:1046F000B3FDFE49206888427CD100BF00200090B5
:10470000FB48006840F40020F9490860084600684A
:1047100000F40020009000BF00BF00BF0020009008
:10472000F3481038006840F00400F149103908607F
:104730000846006800F00400009000BF00BF4FF47E
:104740004060019002200290012003900320049019
:104750000820059001A9E748FDF7B0FCE648E749C5
:1047600008604FF0006048604021E448816000210B
:10477000C1604FF480610161002141618161C161CB
:104780004FF40031016200214162FDF711FB08B1D5
:10479000FCF721FC00BFD9486063846300BFD648A2
:1047A0003038D7490860400548600021D44881600E
:1047B000C1604FF4806101610021416181614FF46A
:1047C0008071C1614902016200214162FDF7F0FA86
:1047D00008B1FCF700FC00BFC948A063846300BFB8
:1047E000002211463420FEF79DFC3420FEF78AFC9F
:1047F00026E2FFE7C349206888427DD100BF002040
:104800000090BB48006840F48010B9490860084631
:10481000006800F48010009000BF00BF00BF0020BF
:104820000090B3481038006840F00400B0491039D7
:1048300008600846006800F00400009000BF00BF58
:1048400000BF002000900846006840F008000860A3
:104850000846006800F00800009000BF00BF881400
:104860000190022002900120039003200490082070
:10487000059001A99F48FDF721FC0420019002202A
:10488000029001200390032004900820059001A9C4
:104890009D48FDF713FC984848309C4908604FF04C
:1048A000006048604021994881600021C1604FF458
:1048B00080610161002141618161C1614FF400317A
:1048C000016200214162FDF773FA08B1FCF783FB36
:1048D00000BF8E486063846300BF874860388C499E
:1048E0000860C0054860002189488160C1604FF4BC
:1048F00080610161002100E01BE0416181614FF4B2
:104900008071C1614902016200214162FDF750FAE4
:1049100008B1FCF760FB00BF7D48A063846300BF63
:10492000002211463520FEF7FDFB3520FEF7EAFB9D
:1049300086E17849206888427BD100BF0020009042
:104940006B48001D006840F010006949091D0860AF
:104950000846006800F01000009000BF00BF00BFD4
:104960000020009062481038006840F00100604963
:10497000103908600846006800F00100009000BF90
:1049800000BF4FF4C060019002200290002003900D
:10499000032004900720059001A95F48FDF78EFBD6
:1049A0005E485F4908604FF00060486040215C4805
:1049B00081600021C1604FF480610161002141618B
:1049C0008161C16101624162FDF7F2F908B1FCF752
:1049D00002FB00BF52486063846300BF4F487838D1
:1049E000504908604FF00060486000214D488160E8
:1049F000C1604FF4806101610021416181614FF428
:104A00008071C161002101624162FDF7D1F908B1F5
:104A1000FCF7E1FA00BF4348A063846300BF0022B3
:104A200011462520FEF77EFB2520FEF76BFB07E1F4
:104A3000FFE73D492068884257D100BF0020009021
:104A40002B48006840F48020294908600846006827
:104A500000F48020009000BF00BF00BF0020009045
:104A600023481038006840F00200214910390860DE
:104A70000846006800F00200009000BF00BF4FF43D
:104A800040600190022002900020039003200490D7
:104A90000720059001A92548FDF710FB1648183896
:104AA000234908604FF00060486040212048816041
:104AB0000021C1604FF48061016100214161816189
:104AC000C1614FF40031016200214162FDF770F9CC
:104AD00008B1FCF780FA00BF15486063846300BF2B
:104AE000054848381349086026E04CE0004C004077
:104AF0004038024000080240706002408C120020E2
:104B0000EC12002000500040000C02404C1300202A
:104B1000AC1300200010014000000240B8640240C5
:104B20000C1400206C1400200048004000040240D7
:104B3000CC1400202C1500204FF0006048600021AC
:104B400040488160C1604FF4806101610021416192
:104B500081614FF48071C1614902016200214162AB
:104B6000FDF726F908B1FCF736FA00BF3548A06317
:104B7000846300BF002211462720FEF7D3FA2720C6
:104B8000FEF7C0FA5CE030492068884258D100BF87
:104B9000002000902D48006840F020002B4908605C
:104BA0000846006800F02000009000BF00BF00BF72
:104BB0000020009025481438006840F00400234984
:104BC000143908600846006800F00400009000BF37
:104BD00000BFC0200190022002900020039003201B
:104BE00004900820059001A91948FDF767FA1948B3
:104BF000194908604FF020604860402116488160E4
:104C00000021C1604FF48061016100214161816137
:104C1000C1614FF40031016200214162FDF7C8F823
:104C200008B1FCF7D8F900BF0B486063846300BF8C
:104C3000002211464720FEF775FA4720FEF762FA78
:104C400006B010BD2C15002000140140443802406D
:104C500000080240A06402408C15002070B5044694
:104C60000D46164694F83E00202816D105B10EB91F
:104C7000012070BD00BF94F83C00012801D1022042
:104C8000F7E7012084F83C0000BF00202063324693
:104C90002946204607F0E0FFEBE70220E9E77047EE
:104CA00070472DE9F84F04460E46174699464FF0D7
:104CB000000A94F83D0020285AD106B117B9012006
:104CC000BDE8F88F00BF94F83C00012801D1022014
:104CD000F6E7012084F83C0000BF0020206421207A
:104CE00084F83D00FDF704FB8246A784E784A068B2
:104CF000B0F5805F04D1206910B90025B04602E00C
:104D000035464FF0000800BF002084F83C0000BF8B
:104D10001BE05346002280212046CDF8009008F089
:104D200017F808B10320CBE745B9B8F80000C0F385
:104D300008002168486008F1020803E0287821682B
:104D400048606D1CE08C401EE084E08C0028E0D1BF
:104D50005346002240212046CDF8009007F0F8FF8E
:104D600008B10320ACE7202084F83D000020A7E72D
:104D70000220A5E7F7B50446154694F83D00202823
:104D80003DD1019800B10DB90120FEBD00BF94F8DE
:104D90003C00012801D10220F7E7012084F83C0003
:104DA00000BF01982062A584E584002020642120B2
:104DB00084F83D001348616BC8631348616B086455
:104DC0001248616BC8640020616B086501AE2368FE
:104DD0001A1D31682B46606BFDF760F86FF04000DC
:104DE0002168086000BF002084F83C0000BF2068F4
:104DF000406940F08000216848610020C5E702203A
:104E0000C3E70000C1C80008F7C80008E9C70008E8
:104E100010B504461248D0F808011249884202D160
:104E20000F4810F0D7FC1048D0F808010F4988420D
:104E300002D10D4810F0CEFC0D48D0F808010D4904
:104E4000884202D10A4810F0C5FC0B48D0F808018E
:104E50000A49884202D1084810F0BCFC10BD00008D
:104E6000004C002000100140981E00200048004027
:104E700078290020004C00405834002000500040A9
:104E800070472DE9F04705468846D5F800904E4614
:104E9000444606F5A06000EB4410806800F0040072
:104EA000042812D1042106F5A06000EB44108160B3
:104EB00006F5A06000EB4410C06840F0020106F562
:104EC000A06000EB4410C160C9E006F5A06000EBF3
:104ED0004410806800F48070B0F5807F22D14FF4D8
:104EE000807106F5A06000EB44108160072104EB9F
:104EF000440000EBC40205F1380000EB820080F8AA
:104F0000291006F5A06000EB4410C06840F00201D3
:104F100006F5A06000EB4410C160E1B228680AF019
:104F20002BFB9CE006F5A06000EB4410806800F0CD
:104F30002000202806D1202106F5A06000EB4410B7
:104F400081608CE006F5A06000EB4410806800F002
:104F50000800082827D106F5A06000EB4410C068BF
:104F600040F0020106F5A06000EB4410C16005218D
:104F700004EB440000EBC40205F1380000EB8200B2
:104F800080F82910102106F5A06000EB4410816024
:104F9000082106F5A06000EB44108160E1B22868AA
:104FA0000AF0EAFA5BE006F5A06000EB44108068C6
:104FB00000F48060B0F5806F27D106F5A06000EBAB
:104FC0004410C06840F0020106F5A06000EB4410F8
:104FD000C160082104EB440000EBC40205F1380075
:104FE00000EB820080F82910102106F5A06000EB8C
:104FF00044108160890106F5A06000EB44108160D7
:10500000E1B228680AF0B8FA29E006F5A06000EBE2
:105010004410806800F08000802820D106F5A06050
:1050200000EB4410C06840F0020106F5A06000EB00
:105030004410C160062104EB440000EBC40205F1FA
:10504000380000EB820080F82910E1B228680AF0ED
:1050500093FA802106F5A06000EB4410816006F50C
:10506000A06000EB4410806800F40070B0F5007F91
:1050700017D106F5A06000EB4410C06840F00201B3
:1050800006F5A06000EB4410C160E1B228680AF0A8
:1050900073FA4FF4007106F5A06000EB44108160D4
:1050A0009EE206F5A06000EB4410806800F001006D
:1050B00000287DD02869C8B104EB440000EBC4018E
:1050C00005F1380000EB8100016906F5A06000EBF6
:1050D00044100069C0F31200091A04EB440000EB0D
:1050E000C40205F1380000EB82008161012104EB6C
:1050F000440000EBC40205F1380000EB820080F8A8
:105100002910002104EB440000EBC40205F1380033
:1051100000EB82004162012106F5A06000EB441023
:10512000816004EB440000EBC40105F1380000EBA2
:105130008100C07950B104EB440000EBC40105F1DB
:10514000380000EB8100C079022816D106F5A06076
:1051500000EB4410C06840F0020106F5A06000EBCF
:105160004410C160E1B228680AF006FA102106F581
:10517000A06000EB441081606AE004EB440000EBA7
:10518000C40105F1380000EB8100C079032827D164
:1051900006F5A06000EB4410006840F0005106F5F1
:1051A000A06000EB44100160012104EB440000E02A
:1051B00093E000EBC40205F1380000EB820080F8B8
:1051C000281004EB440000EBC40305F1380000EBA9
:1051D000830090F82820E1B22846FDF75DF937E01A
:1051E00004EB440000EBC40105F1380000EB810042
:1051F000C07901282CD1012104EB440000EBC4024A
:1052000005F1380000EB820080F8281004EB440020
:1052100000EBC40105F1380000EB8100007F80F055
:10522000010104EB440000EBC40205F1380000EB7F
:105230008200017704EB440000EBC40305F1380061
:1052400000EB830090F82820E1B22846FDF724F90E
:10525000286901282CD104EB440000EBC40105F1BE
:10526000380000EB8100016904EB440000EBC4024C
:1052700005F1380000EB82000089B1FBF0F000F08E
:105280000100002813D004EB440000EBC40105F139
:10529000380000EB8100007F80F0010104EB440046
:1052A00000EBC40205F1380000EB8200017797E1C2
:1052B00004EB440000EBC40105F1380000EB810071
:1052C000007F80F0010104EB440000EBC40205F113
:1052D000380000EB8200017782E106F5A06000EB68
:1052E0004410806800F0020002287DD106F5A0601D
:1052F00000EB4410C06820F0020106F5A06000EB4E
:105300004410C16004EB440000EBC40105F1380017
:1053100000EB810090F8290001280BD1012104EB5A
:10532000440000EBC40205F1380000EB820080F875
:105330002810CFE004EB440000EBC40105F1380075
:1053400000EB810090F8290005280BD1052104EB22
:10535000440000EBC40205F1380000EB820080F845
:105360002810B7E004EB440000EBC40105F138005D
:1053700000EB810090F8290006280BD004EB4400D4
:1053800000EBC40105F1380000EB810090F8290022
:1053900008284FD104EB440000EBC40105F13800AC
:1053A00000EB8100406A401C04EB440101EBC402A5
:1053B00005F1380101EB8201486204EB440000EB87
:1053C000C40105F1380000EB8100406A022817D9BA
:1053D000002104EB440000EBC40205F1380000EBAF
:1053E00082004162042100E089E004EB440000EB0C
:1053F000C40205F1380000EB820080F8281069E053
:10540000022104EB440000EBC40205F1380000EB7C
:10541000820080F8281006F5A06000EB44100768B1
:1054200027F0804747F0004706F5A06000EB4410E6
:1054300007604FE004EB440000EBC40105F13800C5
:1054400000EB810090F82900032819D1022104EB18
:10545000440000EBC40205F1380000EB820080F844
:10546000281006F5A06000EB4410076827F080477D
:1054700047F0004706F5A06000EB4410076029E004
:1054800004EB440000EBC40105F1380000EB81009F
:1054900090F8290007281DD104EB440000EBC4015B
:1054A00005F1380000EB8100406A401C04EB440128
:1054B00001EBC40205F1380101EB820148620421CD
:1054C00004EB440000EBC40205F1380000EB82005D
:1054D00080F82810022106F5A06000EB44108160DE
:1054E00004EB440000EBC40305F1380000EB83003B
:1054F00090F82820E1B22846FCF7CEFF70E006F5D0
:10550000A06000EB4410806800F01000102867D104
:1055100004EB440000EBC40105F1380000EB81000E
:10552000C07903281AD1002104EB440000EBC40227
:1055300005F1380000EB8200416206F5A06000EB47
:105540004410C06840F0020106F5A06000EB441072
:10555000C160E1B228680AF00FF83BE004EB4400B8
:1055600000EBC40105F1380000EB8100C07950B1B7
:1055700004EB440000EBC40105F1380000EB8100AE
:10558000C079022826D1002104EB440000EBC402BC
:1055900005F1380000EB820041622869D0B903218F
:1055A00004EB440000EBC40205F1380000EB82007C
:1055B00080F8291006F5A06000EB4410C06840F0A8
:1055C000020106F5A06000EB4410C160E1B228685A
:1055D00009F0D2FF102106F5A06000EB44108160B5
:1055E000BDE8F0872DE9F04705460F46D5F8009055
:1055F0004E463C4606F5A06000EB4410806800F083
:105600000400042812D1042106F5A06000EB441028
:10561000816006F5A06000EB4410C06840F0020114
:1056200006F5A06000EB4410C1607BE306F5A060C6
:1056300000EB4410806800F02000202836D12021A3
:1056400006F5A06000EB4410816004EB440000EB21
:10565000C40105F1380000EB810040790128E4D154
:10566000002104EB440000EBC40205F1380000EB1C
:1056700082004171022104EB440000EBC40205F1F9
:10568000380000EB820080F8281006F5A06000EBDF
:105690004410C06840F0020106F5A06000EB441021
:1056A000C160E1B2286809F067FF3BE306F5A0603E
:1056B00000EB4410806800F40070B0F5007F17D153
:1056C00006F5A06000EB4410C06840F0020106F54A
:1056D000A06000EB4410C160E1B2286809F04CFF03
:1056E0004FF4007106F5A06000EB4410816019E3EF
:1056F00006F5A06000EB4410806800F00100E8B3FC
:10570000002104EB440000EBC40205F1380000EB7B
:105710008200416206F5A06000EB4410806800F052
:10572000400040280FD1012104EB440000EBC402EB
:1057300005F1380000EB82004171402106F5A060C0
:1057400000EB4410816006F5A06000EB4410C068D7
:1057500040F0020106F5A06000EB4410C160E1B228
:10576000286809F009FF012106F5A06000EB44104C
:10577000816004EB440000EBC40200E006E005F1A8
:10578000380000EB820080F82910CBE206F5A0601B
:1057900000EB4410806800F04000402835D104211F
:1057A00004EB440000EBC40205F1380000EB82007A
:1057B00080F82910012104EB440000EBC40205F13C
:1057C000380000EB82004171002104EB440000EB43
:1057D000C40205F1380000EB8200416206F5A060CA
:1057E00000EB4410C06840F0020106F5A06000EB39
:1057F0004410C160E1B2286809F0BEFE402106F500
:10580000A06000EB441081608CE206F5A06000EB24
:105810004410806800F00800082821D1082106F50E
:10582000A06000EB4410816006F5A06000EB44101E
:10583000C06840F0020106F5A06000EB4410C160B2
:10584000E1B2286809F098FE052104EB440000EB62
:10585000C40205F1380000EB820080F8291061E2F3
:1058600006F5A06000EB4410806800F010001028DE
:1058700049D1002104EB440000EBC40205F13800DB
:1058800000EB82004162032104EB440000EBC40200
:1058900005F1380000EB820080F8291004EB440089
:1058A00000EBC40105F1380000EB8100407998B9A4
:1058B00004EB440000EBC40105F1380000EB81006B
:1058C000007948B9012104EB440000EBC40205F162
:1058D000380000EB8200417106F5A06000EB441037
:1058E000C06840F0020106F5A06000EB4410C16002
:1058F000E1B2286809F040FE102106F5A06000EB37
:10590000441081600EE206F5A06000EB4410806850
:1059100000F08000802872D12869D8B9062104EBF4
:10592000440000EBC40205F1380000EB820080F86F
:10593000291006F5A06000EB4410C06840F0020199
:1059400006F5A06000EB4410C160E1B2286809F0E0
:1059500013FE4CE004EB440000EBC40105F13800F9
:1059600000EB8100406A401C04EB440101EBC402DF
:1059700005F1380101EB8201486204EB440000EBC1
:10598000C40105F1380000EB8100406A022823D9E8
:10599000002104EB440000EBC40205F1380000EBE9
:1059A00082004162042104EB440000EBC40205F1D3
:1059B000380000EB820080F8281004EB440000EB74
:1059C000C40305F1380000EB830090F82820E1B211
:1059D0002846FCF761FD0AE0022104EB440000EBDD
:1059E000C40205F1380000EB820080F82810802105
:1059F00006F5A06000EB4410816093E1FFE706F537
:105A0000A06000EB4410806800F48060B0F5806F07
:105A100027D106F5A06000EB4410C06840F00201F9
:105A200006F5A06000EB4410C160E1B2286809F0FF
:105A3000A3FD102106F5A06000EB441081608901F0
:105A400006F5A06000EB44108160082104EB4400DF
:105A500000EBC40205F1380000EB820080F8291049
:105A600060E106F5A06000EB4410806800F00200E1
:105A70000228C2D106F5A06000EB4410C06820F0F7
:105A8000020106F5A06000EB4410C16004EB440085
:105A900000EBC40105F1380000EB810090F829000B
:105AA00001287CD1012104EB440000EBC40205F184
:105AB000380000EB820080F8281004EB440000EB73
:105AC000C40105F1380000EB8100C07902280AD03A
:105AD00004EB440000EBC40105F1380000EB810049
