:020000040800F2
:10000000005C00209D01000825B000085741000851
:1000100021B000089709000825BA00080000000078
:100020000000000000000000000000002BB00008ED
:10003000670B00080000000029B000082DB0000880
:10004000B7010008B7010008B7010008B7010008B0
:10005000B7010008B7010008B7010008B7010008A0
:10006000B7010008B7010008B7010008BD09000882
:10007000CD090008DD090008ED090008FD090008A8
:10008000B70100080D0A0008B7010008AD09000813
:100090009D090008B7010008B7010008B701000872
:1000A000B7010008B7010008B7010008B701000850
:1000B000B7010008B7010008B7010008B701000840
:1000C000B7010008B7010008B7010008B701000830
:1000D000B7010008F5B90008B701000805BA000823
:1000E000B7010008B7010008B7010008B701000810
:1000F000B7010008B7010008B70100081D0A000891
:10010000B7010008B70100081DB10008B7010008D9
:1001100059B4000869B40008B7010008B701000825
:10012000B7010008B70100082D0A0008B701000850
:10013000B70100080000000000000000B70100083F
:10014000B7010008B7010008B7010008B7010008AF
:10015000B70100083D0A00084D0A000815BA00085A
:10016000B7010008B7010008B7010008B70100088F
:10017000B7010008B70100080000000000000000FF
:10018000B7010008B7010008DFF80CD000F0C6FB8B
:1001900000480047D5CA0008005C00200648804798
:1001A00006480047FEE7FEE7FEE7FEE7FEE7FEE75C
:1001B000FEE7FEE7FEE7FEE709B100088901000857
:1001C0002DE9F05F0546002092469B46884606468C
:1001D000814640241BE0284641464746224600F01F
:1001E00066FA53465A46C01A914110D31146184632
:1001F000224600F04DFA2D1A67EB01084F462246C1
:100200000120002100F044FA17EB00094E41201EA6
:10021000A4F10104DFDC484631462A464346BDE8E6
:10022000F09F40EA01039B0703D009E008C9121FB1
:1002300008C0042AFAD203E011F8013B00F8013BA0
:10024000521EF9D27047D2B201E000F8012B491ECC
:10025000FBD270470022F6E710B513460A46044663
:100260001946FFF7F0FF204610BD421C10F8011B95
:100270000029FBD1801A704730B5044600200346A0
:1002800000E05B1C934203D2E05CCD5C401BF8D0E5
:1002900030BD034611F8012B00F8012B002AF9D1DB
:1002A000184670472DE9FE4F804681EA0300C00FD3
:1002B0000C46009021F0004123F00045B8EB02000D
:1002C000A94105D24046214690461C460B460246AF
:1002D00023F00040104347D0270DC7F30A00C3F3B3
:1002E0000A510290401A019040286BDAC3F31300C0
:1002F00040F4801B0098924620B10023D2EB030A01
:1003000063EB0B0B01985946C0F14002504600F0D8
:10031000BFF906460D4650465946019A00F0D7F9F6
:1003200010EB08006141002487EA115284EAE77368
:100330001A4340D0009A62B3019A012A4FEA075249
:1003400015DC001B61EB02014FF0004202EA07528C
:10035000CDE90042001C41F5801132462B4600F0E9
:100360000EFA03B0BDE8F08F40462146F9E7001BC6
:1003700061EB0201001C41F5801300185B4120185D
:10038000A2F5001747EB030140EAD570B6196D419D
:1003900011E06D084FEA360645EAC0754FEA07528C
:1003A000001B61EB0201001C41F5801149084FEA76
:1003B00030000019514132462B4603B0BDE8F04FE2
:1003C00000F0CEB90098012240000023D0EB0202D9
:1003D00063EBE073009821464FEAE074B8EB00004D
:1003E00061EB0401E9E783F000435BE781F0004142
:1003F00058E72DE9FE4F81EA030404F0004421F0A0
:10040000004100944FF0000B23F0004350EA010438
:100410005ED052EA03045BD0C3F30A54C1F30A5519
:100420002C44A4F2F3340194A0FB0254C1F3130151
:1004300041F48011C3F3130343F4801301FB02441E
:1004400000FB034E840A970A44EA815447EA835723
:10045000A4FB076802958D0A05FB07854FEA932CDC
:1004600004FB0C542705029D4FEA065847EA16374D
:10047000B5EB08056EEB070C870E920E47EA811765
:1004800042EA8312A7FB0201B6EB0B0164EB000406
:100490002B0D43EA0C335E1844EB1C50DA465146F0
:1004A000E7FB0201C5F313044FEA0B3343EA14538D
:1004B0004FEA0432019C43EA0603A4F10C040294BF
:1004C000009CCDE900B400F05AF903B0BDE8F08F0C
:1004D00000200146F9E72DE9F04D81EA030404F01C
:1004E000004B21F0004514464FF0000A23F0004174
:1004F00050EA050220D054EA01021DD0C5F30A5784
:100500000246C5F31303C1F31300C1F30A5640F4C6
:10051000801543F48013A7EB0608101BD64608F29B
:10052000FD3873EB050002D308F1010801E09218D1
:100530005B41B8F1000F03DA00200146BDE8F08D01
:1005400000204FF48011064684460EE0171B73EB23
:10055000050705D3121B63EB050306434CEA010CA8
:1005600049084FEA300092185B4150EA0107EDD18B
:1005700052EA030012D082EA040083EA050108432C
:1005800005D0101BAB4106D20122002306E0002259
:100590004FF0004302E06FF0010253101AEB060027
:1005A0004CEB085110EB0A0041EB0B01BDE8F04D9C
:1005B00000F0D6B80EB5C10F80EAE0700844CA0753
:1005C000002140F233438DE80E000A460B4600F04E
:1005D000D6F803B000BD00F0004230F000400AD071
:1005E000C10D01F56071C0F3160042EA0151C20865
:1005F00040071143704700200146704730B5041E84
:1006000071F1000404DB4FF00044404264EB01014F
:10061000141E73F1000405DB1C464FF000435242E8
:1006200063EB04038B4208BF824230BD01F00043FC
:1006300030B421F0004150EA010206D00A0DA2F5C3
:100640006072C1F31301002A02DC30BC0020704745
:10065000440F44EAC104C100E01830BC00EBC250B2
:1006600000F047B830B50B46014600202022012497
:1006700009E021FA02F59D4205D303FA02F5491B70
:1006800004FA02F52844151EA2F10102F1DC30BD86
:10069000202A04DB203A00FA02F100207047914042
:1006A000C2F1200320FA03F3194390407047202A37
:1006B00004DB203A21FA02F00021704721FA02F30C
:1006C000D040C2F120029140084319467047202AC9
:1006D00006DBCB17203A41FA02F043EAE07306E06A
:1006E00041FA02F3D040C2F120029140084319467A
:1006F00070470029A8BF7047401C490008BF20F080
:100700000100704710B4B0FA80FC00FA0CF050EA17
:10071000010404BF10BC704749B1CCF1200421FA98
:1007200004F411FA0CF118BF012121430843A3EB93
:100730000C01CB1D4FEA00614FEA102042BF0020A0
:1007400010BC704700EBC35010440029A4BF10BC7C
:100750007047401C490008BF20F0010010BC7047E2
:1007600010B5141E73F1000408DA401C41F10001B9
:1007700092185B411A4301D120F0010010BD2DE910
:10078000F04D92469B4611B1B1FA81F202E0B0FA07
:1007900080F220329046FFF77BFF04460F4640EA86
:1007A0000A0041EA0B0153465A46084313D011464A
:1007B00053EA010019D0C8F140025046FFF777FF15
:1007C00005460E46504659464246FFF761FF08432C
:1007D00005D0012004E020463946BDE8F08D002018
:1007E000054346EAE0762C4337430A986305E40A5A
:1007F000A0EB08000022FD0A44EA47540A3002D563
:1008000000200146E9E7010510196941DDE90845C5
:1008100000196941BDE8F04DA2E72DE9F04D002334
:100820001A461B1A8A4103DB00200146BDE8F08D01
:10083000C1F30A52C1F3130141F480154FF0000BCC
:10084000D10702D100186D41521E0027044640F224
:10085000FF11384601EB620A3E4680460246002000
:100860004FF48011FFF723FFC2197141BB1846EB0B
:100870000100B4EB030C75EB000C04D3E41A65EB38
:10088000000517460E46241908F101006D41804607
:100890003428E3DDF91946EB0600091BA84103D211
:1008A0004FF0FF32134601E0002213461BEB070016
:1008B00046EB0A51BDE8F04DFFF752BFC1F30A52B3
:1008C000C1F3130140F2FF3341F480119A4202DA7E
:1008D00000200146704740F233439A42A2F233426D
:1008E00002DC5242FFF7E3BEFFF7D2BE30B5041E72
:1008F00071F1000404DB4FF00044404264EB01015D
:10090000141E73F1000405DB1C464FF000435242F5
:1009100063EB0403994208BF904230BD064C074D7B
:1009200006E0E06840F0010394E8070098471034BF
:10093000AC42F6D3FFF72CFC282D0108482D010806
:1009400070B58C1810F8015B15F0070301D110F891
:10095000013B2A1106D110F8012B03E010F8016BBE
:1009600001F8016B5B1EF9D12B0705D40023521E41
:100970000DD401F8013BFAE710F8013BCB1A921CA9
:1009800003E013F8015B01F8015B521EF9D5A142A7
:10099000D8D3002070BD00BFFEE7000010B50248AC
:1009A00000F0F6FA10BD0000F808002010B502486B
:1009B00000F0EEFA10BD0000F808002010B5024863
:1009C00000F05CFE10BD0000D80C002010B50248FD
:1009D00000F054FE10BD0000580E002010B5024873
:1009E00000F04CFE10BD0000180C002010B50248AD
:1009F00000F044FE10BD0000F80D002010B50248C4
:100A000000F03CFE10BD0000B80B002010B50248FD
:100A100000F034FE10BD0000040A002010B50248AA
:100A200000F02CFE10BD0000780C002010B502482C
:100A300000F024FE10BD0000980D002010B5024803
:100A400000F01CFE10BD0000B80E002010B50248DA
:100A500000F014FE10BD0000380D0020014608789B
:100A600010381823B0FBF3F20848805CC865032AED
:100A700005D908686FF30900001D886503E0086860
:100A80006FF309008865886D7047000020E3000857
:100A9000014600208A6A8B69CBB932B1012A0DD098
:100AA000022A03D0032A10D10EE000BFCB6A03F064
:100AB0008073B3F1807F00D1012007E0CB6AB3F1EE
:100AC000C07F00D1012001E000E000BF34E08B696D
:100AD000B3F5005F1AD132B1012A07D0022A03D040
:100AE000032A11D10AE000BF01200EE0CB6A03F017
:100AF0008073B3F1807F00D1012006E0CB6AB3F1AF
:100B0000C07F00D1012000E000BF15E032B1012A12
:100B100005D0022A04D0032A0CD103E000BF00BF95
:100B2000012008E0CB6A03F08073B3F1807F00D12D
:100B3000012000E000BF00BF704730B504682468A2
:100B400024F4802405682C60046863608468402C69
:100B500004D10468A2600468E16003E00468A16055
:100B60000468E26030BD704772B600BFFEE710B5A2
:100B7000024692F82030012B01D0022B06D11068DA
:100B80004069084314686061002010BD506A40F459
:100B9000802050620120F8E7F0B504460D461E465D
:100BA00094F8207020688368A86800B900E000BF4E
:100BB000012F01D0022F7CD103F0806030B903F007
:100BC000006018B903F08050002873D0C3F30161AE
:100BD000022905D9606A40F4000060620120F0BD7E
:100BE000012088403060A86860B9B5F800C0E868A6
:100BF00040EA4C5C206800F5C07000EB0110C0F8C2
:100C000000C00FE0D5E901C040EACC00D5F80CC027
:100C100040EA0C00D4F800C00CF5C07C0CEB011CC1
:100C2000CCF80000D5F810C0206800F5C07000EBCB
:100C30000110C0F804C0287D01280ED1206800F5FD
:100C4000C07000EB0110406840F4807C206800F523
:100C5000C07000EB0110C0F804C0D079000692F813
:100C600006C040EA0C4092F805C040EA0C2C10790E
:100C70004CEA000C206800F5C07000EB0110C0F8D1
:100C80000CC0D078000692F802C040EA0C4092F8FE
:100C900001C040EA0C2092F800C040EA0C00D4F8F1
:100CA00000C00CF5C07C0CEB011CCCF808002068DF
:100CB00001E016E00FE000F5C07000EB01100068E5
:100CC00040F0010C206800F5C07000EB0110C0F886
:100CD00000C0002083E7606A40F4001060620120D9
:100CE0007DE7606A40F480206062012077E70000C1
:100CF000F0B504460A46216894F82050012D01D031
:100D0000022D7ED1424901F50071086840F00100D2
:100D10000860086820F47C5008600868566A40EA59
:100D200006200860107D00F01F06012000FA06F37F
:100D3000C8699843C861A1F50071D069C8B9D1F8F4
:100D40000C029843C1F80C02908880B2968940EA60
:100D5000064601F51070576940F83760108880B278
:100D6000168940EA064601F51070576900EBC70086
:100D70004660D069012819D1D1F80C021843C1F896
:100D80000C02908880B2168840EA064601F5107081
:100D9000576940F83760908980B2168940EA064664
:100DA00001F51070576900EBC7004660906928B9DB
:100DB000D1F804029843C1F8040204E0D1F8040217
:100DC0001843C1F80402106928B9D1F814029843F5
:100DD000C1F8140204E0D1F814021843C1F8140257
:100DE000106A012804D1D1F81C021843C1F81C0272
:100DF000D1F8000220F00100C1F800020020F0BD8F
:100E0000FFE7606A40F4802060620120F7E700009D
:100E100000640040704770B5044694F82050012DDE
:100E200001D0022D7DD151B92068C06800F00300C7
:100E300080B9606A40F400106062012070BD2068D3
:100E4000006900F0030028B9606A40F40010606295
:100E50000120F3E7206800F5D87000EB011000686E
:100E600000F004009060906840B9206800F5D870E8
:100E700000EB01100068400D106007E0206800F5ED
:100E8000D87000EB01100068C0085060206800F5C1
:100E9000D87000EB0110006800F00200D0602068FC
:100EA00000F5D87000EB0110406800F00F001061F1
:100EB000206800F5D87000EB0110406800F47F4016
:100EC000000A9061206800F5D87000EB01104068BE
:100ED000000C5061206800F5D87000EB01108068AC
:100EE0001870206800F5D87000EB0110806800F4DD
:100EF0007F40000A5870206800F5D87000EB0110A0
:100F0000806800F47F00000C9870206800F5D870AD
:100F100000EB01108068000ED870206800F5D870D2
:100F200000E02FE000EB0110C0681871206800F5A8
:100F3000D87000EB0110C06800F47F40000A5871BF
:100F4000206800F5D87000EB0110C06800F47F0045
:100F5000000C9871206800F5D87000EB0110C06893
:100F6000000ED87131B92068C06840F020002668B2
:100F7000F06005E02068006940F0200026683061DC
:100F800000205BE7606A40F480206062012055E742
:100F90002DE9F05F04460025206846692068D0F8F6
:100FA0000490206887682068D0F80CA02068D0F8EA
:100FB00010B02068D0F8188006F00100002855D045
:100FC00007F00100C0B101202168886007F002002D
:100FD00018B1204600F07CFA0EE007F0040010B1D2
:100FE00045F4006508E007F0080010B145F48055AD
:100FF00002E0204600F06AFA07F48070C8B14FF4AE
:1010000080702168886007F4007018B1204600F0F5
:1010100090FA0EE007F4806010B145F4005508E046
:1010200007F4006010B145F4804502E0204600F06E
:101030007FFA07F48030C8B14FF4803021688860AF
:1010400007F4003018B1204600F075FA0EE007F4FE
:10105000802010B145F4004508E007F4002010B1ED
:1010600045F4803502E0204600F064FA06F00800FE
:1010700038B10AF0100020B145F400751020216845
:10108000C86006F0040040B10AF0080028B108204A
:101090002168C860204600F0B1F906F0020038B1BE
:1010A0002068C06800F0030010B1204600F0A8F9E5
:1010B00006F0400038B10BF0100020B145F4806517
:1010C00010202168086106F0200040B10BF00800F4
:1010D00028B1082021680861204600F0C5F906F013
:1010E000100038B12068006900F0030010B12046FC
:1010F00000F0BBF906F4003040B109F0100028B14F
:10110000102021684860204600F0B0F906F48030D5
:1011100040B109F0080028B1082021684860204645
:1011200000F00AFA06F4004088B309F0040078B32E
:1011300006F4807020B108F0010008B145F0010507
:1011400006F4007020B108F0020008B145F0020575
:1011500006F4806020B108F0040008B145F00405F1
:1011600006F40060A0B108F0700088B108F07000CB
:10117000402817D006DC10280BD020280CD03028AF
:1011800019D10CE0502810D0602814D110E01DE0D7
:1011900019E045F008050FE045F010050CE045F0BA
:1011A000200509E045F0400506E045F0800503E034
:1011B00045F4807500E000BF00BF2068806920F022
:1011C0007000216888610420216848602DB1606A40
:1011D000284360622046FFF71DFEBDE8F09F70B512
:1011E00004460CB9012070BD94F8200010B92046C7
:1011F00000F0B0F82068006820F002002168086064
:1012000000F0FCFD05460DE000F0F8FD401B0A284B
:1012100008D9606A40F400306062052084F820003C
:101220000120E0E72068406800F002000028EBD1D0
:101230002068006840F001002168086000F0DEFDD1
:1012400005460DE000F0DAFD401B0A2808D9606A67
:1012500040F400306062052084F820000120C2E7DD
:101260002068406800F001000028EBD0207E0128B3
:1012700006D12068006840F080002168086005E021
:101280002068006820F0800021680860607E0128E6
:1012900006D12068006840F040002168086005E041
:1012A0002068006820F0400021680860A07E0128C6
:1012B00006D12068006840F020002168086005E041
:1012C0002068006820F0200021680860E07E012886
:1012D00006D12068006820F010002168086005E051
:1012E0002068006840F0100021680860207F012815
:1012F00006D12068006840F008002168086005E019
:101300002068006820F0080021680860607F0128DC
:1013100006D12068006840F004002168086005E0FC
:101320002068006820F0040021680860D4E9020108
:10133000084321690843616908436168491E0843FD
:101340002168C86100206062012084F8200000202C
:1013500049E7000010B586B00446142101A8FEF745
:1013600079FF23492068884240D100BF00200090C7
:101370002048006840F000701E4908600846006878
:1013800000F00070009000BF00BF00BF0020009080
:1013900018481038006840F00100164910390860FC
:1013A0000846006800F00100009000BF00BF4FF445
:1013B000C05001900220029000200390032004906E
:1013C0000920059001A90C4800F0FEFB00221146FF
:1013D000132001F079F8132001F066F8002211467D
:1013E000142001F071F8142001F05EF806B010BD71
:1013F0000064004040380240000002407047000096
:1014000010B50446144BA3F1240200212046FFF737
:1014100002FD38B1012110483C3880F8521103F028
:1014200015F906E000210C483C3880F8521180F88C
:10143000531109483C38816A0848816006493C39A3
:10144000064A886906490BF07AFA18B1054904483A
:101450000BF0B7F810BD00006013002098150020B5
:1014600088140020D816002070477047704770B568
:10147000044694F82000012822D1022084F820009C
:101480002068006820F001002168086000F0B6FCC8
:1014900005460DE000F0B2FC401B0A2808D9606A3E
:1014A00040F400306062052084F82000012070BD07
:1014B0002068406800F001000028EBD16062F6E788
:1014C000606A40F4002060620120F0E7704700008D
:1014D00070B50546154890F84E1190F84D018142BF
:1014E0001BDA124890F84D1190F84E01081AC4B258
:1014F000082C00DD08240D4890F84E012044C1B2AC
:101500000A4880F84E1190F84E01001BC1B22246E5
:1015100006484D3003F05EF907E00021034880F8EB
:101520004E110120014981F8480070BD24130020AC
:101530007047704770477047704770B50446A56D97
:1015400000F05CFC064694F83500022808D08020A4
:10155000606500BF002084F8340000BF012070BD2A
:101560002068006820F01600216808602068406943
:1015700020F0800021684861206C08B9A06C28B177
:101580002068006820F00800216808602068006872
:1015900020F00100216808600FE000F02FFC801BA4
:1015A00005280AD92020606500BF002084F8340097
:1015B00000BF032084F83500D1E72068006800F000
:1015C00001000028E9D194F85C103F208840A86011
:1015D00000BF002084F8340000BF012084F83500EB
:1015E0000020BCE7014691F83500022803D0802096
:1015F000486501207047052081F8350008680068BB
:1016000020F001000A6810600020F3E770B504467E
:101610000CB9012070BD94F83500022800D1F9E71B
:101620002068006820F0010021680860002021681F
:10163000086021684860216888602168C860216866
:1016400008612120216848612046FFF707FA054616
:101650000020E06320646064A064E064206594F886
:101660005C103F208840A8600020606584F8350049
:1016700000BF84F8340000BF00BFCBE7F8B50446D4
:10168000002000908C4800684FF41651B0FBF1F731
:10169000A56D2E6894F85C1008208840304098B101
:1016A0002068006800F0040070B12068006820F035
:1016B00004002168086094F85C1008208840A86045
:1016C000606D40F00100606594F85C100120884076
:1016D000304068B12068406900F0800040B194F863
:1016E0005C1001208840A860606D40F002006065D9
:1016F00094F85C1004208840304068B1206800688D
:1017000000F0020040B194F85C1004208840A8600A
:10171000606D40F00400606594F85C101020884013
:10172000304078B32068006800F0080050B394F8A7
:101730005C1010208840A8602068006800F48020B9
:1017400080B12068006800F4002028B9206CC8B17E
:101750002046216C884715E0A06C98B12046A16C0A
:1017600088470FE02068006800F4807028B920687E
:10177000006820F0080021680860206C10B1204645
:10178000216C884794F85C10202088403040002865
:1017900065D02068006800F0100000285FD094F841
:1017A0005C1020208840A86094F83500052828D1D6
:1017B0002068006820F016002168086020684069F1
:1017C00020F0800021684861206C08B9A06C28B125
:1017D0002068006820F008002168086094F85C1018
:1017E0003F208840A86000BF002084F8340000BF7C
:1017F000012084F83500206D10B12046216D884706
:10180000F8BD2068006800F4802080B1206800687E
:1018100000F4002028B9606C10B12046616C884744
:101820001DE0E06BD8B12046E16B884717E02068E7
:10183000006800F4807068B92068006820F010002B
:101840002168086000BF002084F8340000BF012038
:1018500084F83500E06B10B12046E16B8847606D7D
:1018600038B3606D00F00100F0B1052084F8350058
:101870002068006820F001002168086000BF00981F
:10188000401C0090B84200D905E02068006800F0D4
:1018900001000028F3D100BF00BF002084F834000D
:1018A00000BF012084F83500E06C10B12046E16CE7
:1018B000884700BFA4E700000C0000202DE9F0419C
:1018C0000446002500F09AFA074614B90120BDE845
:1018D000F081606A00B100BF00BF002084F83400CE
:1018E00000BF022084F835002068006820F0010065
:1018F000216808600AE000F081FAC01B052805D9BC
:1019000020206065032084F83500E0E72068006847
:1019100000F001000028EED120680568214805404C
:10192000D4E901010843E16808432169084361697A
:101930000843A1690843E1690843216A0843054354
:10194000606A042803D1D4E90B01084305432068E9
:1019500005602068456925F00705606A0543606AEF
:1019600004280DD1A06A0543E06A48B12046FFF77C
:101970008FF828B140206065012084F83500A6E783
:10198000206845612046FFF769F8064694F85C1028
:101990003F208840B06000206065012084F8350059
:1019A000002094E73F8010F02DE9F04704460D46F3
:1019B00016461F464FF00008D4F8589000BF94F820
:1019C0003400012802D10220BDE8F087012084F80C
:1019D000340000BF94F83500012825D1022084F896
:1019E0003500002060653B46324629462046FFF719
:1019F000A4F894F85C103F208840C9F808002068DB
:101A0000006840F0160021680860206C28B120684A
:101A1000006840F00800216808602068006840F015
:101A200001002168086006E000BF002084F834004F
:101A300000BF4FF002084046C6E7000070B50446FC
:101A400000F0DCF906462546681C10B10448007811
:101A5000054400BF00F0D2F9801BA842FAD370BD44
:101A600008000020F0B50C460025002200230021CC
:101A700092E0012606FA01F504EA0502AA427DD1A8
:101A8000474E8F0856F827308E07370F0F26BE4077
:101A90003340444EB04201D1002623E0424EB042D2
:101AA00001D101261EE0414EB04201D1022619E0CB
:101AB0003F4EB04201D1032614E03E4EB04201D168
:101AC00004260FE03C4EB04201D105260AE03B4E11
:101AD000B04201D1062605E0394EB04201D10726B9
:101AE00000E008268F073F0FBE409E4222D1354EB0
:101AF00036689643334F3E603E1D366896433F1D21
:101B00003E603E1D366896433F1D3E603E1D366872
:101B100096433F1D3E608E07370F0F2606FA07F3E8
:101B20001F4E8F0856F827609E431D4F4FEA910CB9
:101B300047F82C6006684FEA410C032707FA0CF7B8
:101B4000BE430660CF0800F1200656F827604F0715
:101B50004FEAD76C0F2707FA0CF7BE434FEAD10CB8
:101B600000F1200747F82C60C6684FEA410C0327B4
:101B700007FA0CF7BE43C660466800E00BE0012799
:101B80008F40BE43466086684FEA410C032707FA40
:101B90000CF7BE438660491C1029FFF46AAFF0BD04
:101BA00008380140000002400004024000080240E2
:101BB000000C0240001002400014024000180240D5
:101BC000001C0240003C0140F8B502460B460025CF
:101BD000002400200021DEE0012606FA01F51E683F
:101BE00006EA0504AC4275D11E7906F00306012E03
:101BF00004D01E7906F00306022E13D190684F0020
:101C00000326BE40B0434F00DE68BE4030439060C4
:101C1000506801268E40B0431E79C6F300168E40F0
:101C2000304350601E7906F00306032E09D0D068B9
:101C30004F000326BE40B0434F009E68BE40304375
:101C4000D0601E7906F00306022E13D1CF0802F1F0
:101C5000200656F827004E07F70E0F26BE40B04369
:101C60004F07FF0E1E69BE403043CF0802F1200629
:101C700046F8270010684F000326BE40B0431E7987
:101C800006F003064F00BE40304310605E6806F069
:101C90008056B6F1805F7DD100BF00260096404E91
:101CA000366846F480463E4F3E603E46366806F44F
:101CB0008046009600BF00BF3A4E8F0856F82700B6
:101CC0008E07370F0F26BE40B043374EB24202D1C7
:101CD000002624E05EE0354EB24201D101261EE02E
:101CE000334EB24201D1022619E0324EB24201D146
:101CF000032614E0304EB24201D104260FE02F4EED
:101D0000B24201D105260AE02D4EB24201D106268B
:101D100005E02C4EB24201D1072600E008268F07CD
:101D20003F0FBE4030431F4E8F0846F82700264E17
:101D30003068A0435E6806F48036B6F5803F00D177
:101D40002043214E3060361D3068A0435E6806F4A3
:101D50000036B6F5003F00D120431B4E361D3060E3
:101D6000361D3068A0435E6806F48016B6F5801F05
:101D700000D12043144E08363060361D3068A04331
:101D80005E6806F40016B6F5001F00D120430E4E23
:101D90000C363060491C1029FFF41EAFF8BD00005E
:101DA000443802400838014000000240000402406C
:101DB00000080240000C02400010024000140240E3
:101DC00000180240001C0240003C0140024613691A
:101DD0000B400BB1012000E00020704710B54269B4
:101DE00021EA020302EA010443EA0443836110BDCD
:101DF0000AB1816101E00B0483617047014800680A
:101E0000704700000000002070B504460CB90120A6
:101E100070BD94F83D0028B9002084F83C002046AD
:101E200000F068FA242084F83D002068006820F063
:101E30000100216808602068006840F400402168C3
:101E400008602068006820F400402168086000F005
:101E500025FD05465C496068884206D85B48854296
:101E600001D2012007E0002005E05948854201D257
:101E7000012000E00020012800D1C9E75548B5FB4A
:101E8000F0F62068406820F03F0030432168486049
:101E90004D496068884201D8701C07E04FF4967085
:101EA00070434FF47A71B0FBF1F0401C2168096A6D
:101EB00021F03F0108432168086243496068884275
:101EC00014D8681E61684900B0FBF1F0401CC0F3F3
:101ED0000B00042801D204203DE0681E616849001F
:101EE000B0FBF1F0401CC0F30B0034E0A06838B93F
:101EF000681E616801EB4101B0FBF1F0401C0AE093
:101F0000681E616801EBC10202EB0111B0FBF1F048
:101F1000401C40F48040C0F30B0008B901201AE0D7
:101F2000A06848B9681E616801EB4101B0FBF1F09F
:101F3000401CC0F30B000CE0681E616801EBC1029D
:101F400002EB0111B0FBF1F0401CC0F30B0040F4B8
:101F5000804040F400402168C9694CF6FF7291430B
:101F600008432168C861D4E907010843216809686A
:101F700021F0C001084321680860D4E90310084338
:101F80002168896848F2FF329143084321688860DC
:101F9000D4E9050108432168C96821F0FF0108431D
:101FA0002168C8602068006840F00100216808606E
:101FB00000202064202084F83D000020206384F865
:101FC0003E0000BF24E70000A086010080841E00C0
:101FD00000093D0040420F002DE9F84F04460F462E
:101FE00090461E46FFF70AFF05464FF0010994F898
:101FF0003D0020287ED11923012263492046009507
:1020000002F068F910B10220BDE8F88F00BF94F823
:102010003C00012801D10220F6E7012084F83C00B1
:1020200000BF2068006800F0010028B9206800683F
:1020300040F00100216808602068006820F400601A
:1020400021680860242084F83D00002020644F4867
:10205000E06200BF2068006840F48070216808607A
:10206000334600224FF001112046009502F032F96C
:1020700058B12068006800F48070B0F5807F02D10C
:102080004FF4007020640320BEE707F0FE002168D3
:102090000861FFF7B3FE054620684069C0F3400AB7
:1020A00020684069C0F3802B10E0FFF7A7FE401BBB
:1020B000B04200D816B9A02084F83D0020684069DD
:1020C000C0F3400A20684069C0F3802B94F83D00BB
:1020D000A02805D0BAF1000F02D1BBF1000FE4D067
:1020E000202084F83D0020684069C0F3400028B3F8
:1020F000206800E045E0006840F400702168086056
:1021000000BF00200090206840690090206880692E
:10211000009000BF00BF192301221B4920460095F3
:1021200002F0D8F808B101206EE7202084F83D00C5
:1021300000BF002084F83C0000BF65E7206800680D
:1021400040F40070216808606FF480602168486185
:10215000192301220C492046009502F0BBF808B172
:10216000012051E709F10109C145FFF473AF2020B7
:1021700084F83D0000BF002084F83C0000BF01202F
:1021800042E7022040E70000020010000000FFFFCD
:102190002DE9FC5F04460F4690469946DDE90CABFD
:1021A0000E9EFFF72BFE054694F83D0020287DD1BA
:1021B000192301224D492046009502F08BF810B1F9
:1021C0000220BDE8FC9F00BF94F83C00012801D12B
:1021D0000220F6E7012084F83C0000BF2068006878
:1021E00000F0010028B92068006840F00100216873
:1021F00008602068006820F40060216808602120E1
:1022000084F83D00402084F83E0000202064C4F89B
:1022100024A0A4F82AB0608D20853548E0624B46A2
:10222000424639462046CDE9006501F0B5FF08B1C8
:102230000120C6E731E02A463146204602F0EFF899
:1022400050B1206C042805D12068006840F400706B
:10225000216808600120B4E7606A0078216808619D
:10226000606A401C6062208D401E2085608D401E8B
:10227000608520684069C0F3800070B1208D60B136
:10228000606A007821680861606A401C6062208D85
:10229000401E2085608D401E6085208D0028CAD19B
:1022A0002A463146204601F0E7FF00E01CE050B12D
:1022B000206C042805D12068006840F40070216873
:1022C000086001207DE72068006840F40070216804
:1022D0000860202084F83D00002084F83E0000BF04
:1022E00084F83C0000BF6CE702206AE7020010009F
:1022F0000000FFFF10B586B00446142101A8FDF7C9
:10230000A9FF1B49206888422FD100BF0020009000
:102310001848006840F00200164908600846006846
:1023200000F00200009000BF00BFC020019012200A
:10233000029001200390032004900420059001A93D
:102340000D48FFF741FC00BF002000900948103005
:10235000006840F400100749103108600846006822
:1023600000F40010009000BF00BF06B010BD0000D8
:102370000054004030380240000402400348006826
:1023800003490978084401490860704700000020AB
:102390000800002010B50D48006840F400700B499B
:1023A00008600846006840F48060086008460068DD
:1023B00040F480700860032000F0C4F8002000F0B2
:1023C00007F800F02BF8002010BD0000003C024090
:1023D00070B504460E4800784FF47A71B1FBF0F006
:1023E0000C490968B1FBF0F5284600F01DFD08B165
:1023F000012070BD102C07D200222146501E00F093
:1024000063F80548046001E00120F2E70020F0E7EE
:10241000080000200C0000200400002008B500BFC8
:10242000002000900E48006840F480400C4908608D
:102430000846006800F48040009000BF00BF00BF65
:1024400000200090081F006840F08050091F0860BD
:102450000846006800F08050009000BF00BF08BD33
:102460004438024010B501460846002817DB00F04A
:102470001F0301229A400B4B440943F8242000BF5C
:1024800000BF00BFBFF34F8F00BF00BF00BF00BF42
:1024900000BF00BFBFF36F8F00BF00BF00BF00BF12
:1024A00010BD000080E100E001460846002809DB7D
:1024B00000F01F0301229A4043099B0003F1E0232F
:1024C000C3F8002100BF70472DE9F05F80460D463C
:1024D0001646002709F0CCFA074639462A46334605
:1024E00001F00700C0F1070ABAF1040F02D94FF05A
:1024F000040A01E0C0F1070AD14600F1040ABAF16A
:10250000070F02D24FF0000A01E0A0F1030AD446FF
:102510004FF0010A0AFA09FAAAF1010A0AEA020AC4
:102520000AFA0CFA4FF0010B0BFA0CFBABF1010BA2
:102530000BEA030B4AEA0B042146404609F0A0FAD5
:10254000BDE8F09F00BF00F00702064B19684FF688
:10255000FF031940044B0B4343EA0221014B19606E
:1025600000BF70470CED00E00000FA05F8B5044626
:1025700000250026207800F0010020B9207800F026
:10258000040004282FD100205B498866FFF736FC41
:10259000054606E0FFF732FC401B022801D9032064
:1025A000F8BD56480068C0F3C0600028F2D16068EA
:1025B0008101207A41EA007050498431086001208D
:1025C0004D498866FFF71AFC054606E0FFF716FC42
:1025D000401B022801D90320E2E748480068C0F305
:1025E000C0600028F2D0207800F0020002287DD1DF
:1025F00000BF0020009041484030006840F080500B
:102600003E49403108600846006800F08050009064
:1026100000BF00BF3A48006840F480703849086045
:10262000FFF7ECFB054606E0FFF7E8FB401B02283E
:1026300001D90320B4E73248006800F48070002814
:10264000F2D02E487030006800F440764EB3A08976
:1026500000F44070B04224D028487030006820F464
:102660004076012027490860002008602348703028
:102670000660006800F0010098B1FFF7BFFB054657
:1026800008E0FFF7BBFB401B41F28831884201D9CB
:10269000032085E7194870300068C0F34000002827
:1026A000EFD000BFA08900F44070B0F5407F0CD19E
:1026B00012480830006820F4F810134AE16811400D
:1026C00008430E490831086007E00C4808300068EC
:1026D00020F4F81009490831086008487030006893
:1026E000A189C1F30B010843044900E002E0703105
:1026F000086000BF002053E7000047420038024056
:1027000000700040400E4742FFFCFF0F70B50446CA
:102710000D460CB9012070BD5848006800F0070054
:10272000A84209D255490D700846006800F007001C
:10273000A84201D00120EEE7207800F00200022834
:102740001DD1207800F00400042805D14C48006811
:1027500040F4E0504A490860207800F0080008285A
:1027600005D14748006840F4604045490860444846
:10277000006820F0F000A168084341490860207813
:1027800000F00100A8B36068012807D13C48083870
:102790000068C0F34040B8B90120BCE76068022877
:1027A00002D06068032807D1354808380068C0F3B4
:1027B000406048B90120AEE7314808380068C0F3EE
:1027C000400008B90120A6E72D48006820F003006A
:1027D000616808432A490860FFF710FB064609E0D4
:1027E000FFF70CFB801B41F28831884202D903209D
:1027F00091E707E02248006800F00C006168B0EB48
:10280000810FEDD11D48006800F00700A84209D9EA
:102810001A490D700846006800F00700A84201D070
:10282000012078E7207800F00400042807D114483C
:10283000006820F4E050E1680843114908602078FE
:1028400000F00800082808D10D48006820F4604016
:10285000216940EAC1000A49086000F03FF80849D0
:102860000968C1F30311074A515CC8400649086072
:1028700006480068FFF7ACFD00204CE7003C024032
:102880000838024028E300080C0000200400002063
:1028900001480068704700000C00002000B5FFF7F9
:1028A000F7FF04490968C1F38221034A515CC8401B
:1028B00000BD00000838024038E3000800B5FFF70B
:1028C000E7FF04490968C1F34231034A515CC8403B
:1028D00000BD00000838024038E300082DE9F04749
:1028E000002400250026A1462548006800F00C00C1
:1028F00020B1042805D008283AD105E0DFF88490FB
:1029000039E0DFF8849036E01D48001F006800F0D1
:102910003F041B48001F006800F4800078B11A488B
:102920001749091F0968C1F38811A0FB017001460E
:10293000224600233846FDF743FC05460EE01148C9
:102940000F49091F0968C1F38811A0FB01700146F6
:10295000224600233846FDF733FC05460848001F91
:102960000068C0F30140401C4600B5FBF6F902E0E8
:10297000DFF8109000BF00BF4846BDE8F0870000B8
:10298000083802400024F40000127A00F8B504462A
:102990000CB90120F8BD207800F00100002874D0A7
:1029A000F948006800F00C0004280DD0F6480068D3
:1029B00000F00C00082813D1F348001F006800F451
:1029C0008000B0F5800F0BD1EF4808380068C0F3E5
:1029D0004040002859D06068002856D10120D9E72E
:1029E00000BF6068B0F5803F08D1E748083800684C
:1029F00040F48030E449083908601EE06068B0F5B2
:102A0000A02F0DD1E0480838006840F48020DE494E
:102A1000083908600846006840F4803008600CE01F
:102A2000D9480838006820F48030D7490839086050
:102A30000846006820F48020086000BF606890B1FC
:102A4000FFF7DCF9054606E0FFF7D8F9401B6428DC
:102A500001D903209EE7CC4808380068C0F3404005
:102A60000028F1D011E0FFF7C9F9054606E0FFF7AD
:102A7000C5F9401B642801D903208BE7C2480838F8
:102A80000068C0F340400028F1D1207800F0020037
:102A900002285FD1BC48006800F00C0058B1BA4869
:102AA000006800F00C0008281CD1B748001F00681F
:102AB00000F48000B0B9B44808380068C0F34000A2
:102AC00020B1E068012801D0012063E7AE48083852
:102AD000006820F0F800216940EAC100AA490839DD
:102AE000086037E0E06800B30120A8490860FFF7FC
:102AF00085F9054606E0FFF781F9401B022801D958
:102B0000032047E7A04808380068C0F340000028C9
:102B1000F1D09D480838006820F0F800216940EAAB
:102B2000C10099490839086014E0002097490860FD
:102B3000FFF764F9054606E0FFF760F9401B02283D
:102B400001D9032026E7904808380068C0F3400008
:102B50000028F1D1207800F0080008282CD1606905
:102B6000A8B101208A490860FFF748F9054606E048
:102B7000FFF744F9401B022801D903200AE78248E5
:102B80006C300068C0F340000028F1D014E0002051
:102B90007F490860FFF732F9054606E0FFF72EF996
:102BA000401B022801D90320F4E677486C30006806
:102BB000C0F340000028F1D1207800F00400042880
:102BC00070D1002770483830006800F0805090B90C
:102BD00000BF002000906C483830006840F0805002
:102BE0006949383108600846006800F0805000905C
:102BF00000BF00BF01276748006800F48070B0B9CB
:102C00006448006840F4807062490860FFF7F6F895
:102C1000054606E0FFF7F2F8401B022801D9032021
:102C2000B8E65C48006800F480700028F2D000BF6D
:102C3000A068012808D154486830006840F00100BD
:102C40005149683108601DE0A06805280DD14E4843
:102C50006830006840F004004B496831086008465D
:102C6000006840F0010008600CE0474868300068E8
:102C700020F001004449683108600846006820F0EF
:102C80000400086000BFA068A8B1FFF7B7F80546C8
:102C900009E0FFF7B3F8401B41F28831884202D9BE
:102CA000032077E626E0384868300068C0F340002B
:102CB0000028EED013E0FFF7A1F8054608E0FFF783
:102CC0009DF8401B41F28831884201D9032061E61A
:102CD0002D4868300068C0F340000028EFD1012F74
:102CE00007D129483830006820F080502649383113
:102CF000086000BFA069002845D02348006800F0A4
:102D00000C0008285DD0A069022845D100201F4989
:102D10000866FFF773F8054606E0FFF76FF8401BFB
:102D2000022801D9032035E6174808380068C0F3A7
:102D300040600028F1D1D4E907010843616A40EA04
:102D400081110122A06AC2EB500041EA00412C200F
:102D5000005D41EA00600C49091F086001200B4931
:102D60000866FFF74BF8054606E0FFF747F8401BFB
:102D7000022801D903200DE6034808380068C0F393
:102D800040600028F1D049E0083802400000474286
:102D9000800E474200700040002021490866FFF77E
:102DA0002DF8054606E0FFF729F8401B022801D957
:102DB0000320EFE51B480068C0F340600028F2D113
:102DC0002CE0A069012800D1E4E51648001D066842
:102DD000A069012820D006F48001E06981421BD15E
:102DE00006F03F01206A814216D147F6C07030409C
:102DF000616AB0EB811F0FD106F440310122A06A55
:102E0000C2EB5000B1EB004F06D106F070612C20F0
:102E1000005DB1EB006F01D00120BBE50020B9E5FA
:102E2000000047420038024070B504462546681E3F
:102E3000B0F1807F01D301200FE0681E4FF0E02148
:102E400048610F214FF0FF3008F01AFE00204FF0CC
:102E5000E021886107200861002070BD704770473D
:102E600030B502460B4600BF92F83C00012801D164
:102E7000022030BD012082F83C0000BF022082F811
:102E80003D00106844681068816824F07004186878
:102E9000044310684460184D1068A8421BD01068A5
:102EA000B0F1804F17D0154D1068A84213D0144DC3
:102EB0001068A8420FD0134D1068A8420BD0124DD5
:102EC0001068A84207D0114D1068A84203D0104DD9
:102ED0001068A84205D121F08001586801431068AC
:102EE0008160012082F83D0000BF002082F83C0094
:102EF00000BF00BFBDE7000000000140000400402B
:102F000000080040000C0040000401400040014067
:102F10000018004010B504460CB9012010BD94F80B
:102F20003D0028B9002084F83C00204600F026F837
:102F3000022084F83D00211D206808F0F7F80120E8
:102F400084F8460000BF84F83E0001213F2001556F
:102F5000402001554120015500BF00BF012084F8E9
:102F6000420043200155442001554520015500BF32
:102F7000012084F83D000020D0E7000038B5044669
:102F80002B492068884236D100BF00200090294894
:102F9000006840F00400274908600846006800F017
:102FA0000400009000BF00BF2348244908604FF090
:102FB000806048604021214881600021C1604FF459
:102FC0008061016189004161890081618911C1616C
:102FD0004902016204214162032181620021C16230
:102FE0000163FEF76BFC08B1FDF7BEFD00BF13489F
:102FF000206284631BE012492068884217D100BF19
:10300000002000900B48006840F008000949086063
:103010000846006800F00800009000BF00BF0022D2
:1030200011463220FFF750FA3220FFF73DFA38BD43
:103030000008004040380240A0600240040A00201E
:10304000000C0040014691F83D00012801D001200C
:103050007047022081F83D001A4B086898421BD047
:103060000868B0F1804F17D0174B0868984213D00A
:10307000164B086898420FD0154B086898420BD041
:10308000144B0868984207D0134B0868984203D045
:10309000124B086898420CD10868806800F007025B
:1030A000062A0CD00868006840F001000B68186020
:1030B00005E00868006840F001000B681860002017
:1030C000C6E7000000000140000400400008004086
:1030D000000C004000040140004001400018004086
:1030E0002DE9F04104460D4600BF94F83C0001284C
:1030F00002D10220BDE8F081012084F83C0000BF2D
:10310000022084F83D002068866826F0770626F4C1
:103110007F46206886602868502833D00CDC202841
:1031200050D004DC00284BD0102851D149E0302881
:1031300049D040284CD139E060282DD0702807D0E4
:10314000B0F5805F03D0B0F5005F41D10DE040E005
:10315000D5E902136A68206808F065F82068866877
:1031600046F077062068866033E0D5E902136A6886
:10317000206808F058F82068806840F48040216892
:10318000886026E0EA686968206808F03DF9502107
:10319000206808F053F81CE0EA686968206808F0C5
:1031A00046F96021206808F049F812E0EA68696889
:1031B000206808F029F94021206808F03FF808E06D
:1031C00000BF00BF00BF2968206808F037F800E0A2
:1031D00000BF00BF012084F83D0000BF002084F83C
:1031E0003C0000BF00BF85E7704710B5044620686B
:1031F0000069C0F34000D8B12068C068C0F3400047
:10320000B0B16FF0020021680861012020772068CA
:10321000806900F0030018B12046FFF7E5FF05E0E4
:10322000204600F0DDF8204600F08DF900202077E0
:1032300020680069C0F38000D8B12068C068C0F37E
:103240008000B0B16FF0040021680861022020778F
:103250002068806900F4407018B12046FFF7C4FF71
:1032600005E0204600F0BCF8204600F06CF9002094
:10327000207720680069C0F3C000D8B12068C0681A
:10328000C0F3C000B0B16FF00800216808610420ED
:1032900020772068C06900F0030018B12046FFF7CE
:1032A000A3FF05E0204600F09BF8204600F04BF914
:1032B0000020207720680069C0F30010D8B1206892
:1032C000C068C0F30010B0B16FF010002168086151
:1032D000082020772068C06900F4407018B12046AB
:1032E000FFF782FF05E0204600F07AF8204600F064
:1032F0002AF9002020772068006900F0010058B109
:103300002068C06800F0010030B16FF00100216852
:103310000861204600F09EF920680069C0F3C010E3
:1033200058B12068C068C0F3C01030B16FF08000A1
:10333000216808612046FFF791FD20680069C0F30D
:10334000801058B12068C068C0F3801030B16FF0B1
:10335000400021680861204600F07DF9206800697E
:10336000C0F3401058B12068C068C0F3401030B1BD
:103370006FF02000216808612046FFF770FD10BD46
:1033800010B586B00446142101A8FCF763FF11496B
:10339000206888421CD100BF002000900E480068C1
:1033A00040F002000C4908600846006800F0020086
:1033B000009000BF00BF481501900220029000203D
:1033C000039004900220059001A90448FEF7FCFB3D
:1033D00006B010BD00080040303802400004024032
:1033E000704770B504460D46164600BF94F83C0081
:1033F000012801D1022070BD012084F83C0000BFEB
:1034000036B1042E1BD0082E31D00C2E5ED145E0F3
:103410002946206807F01CFF2068806940F00800FA
:10342000216888612068806920F004002168886133
:1034300020688069296908432168886147E0294636
:10344000206807F03DFF2068806940F40060216833
:1034500088612068806920F4806021688861206824
:103460008069296940EA0120216888612FE02946A6
:10347000206807F063FF2068C06940F008002168F9
:10348000C8612068C06920F004002168C861206814
:10349000C069296908432168C86118E02946206885
:1034A00007F088FF2068C06940F400602168C861A7
:1034B0002068C06920F480602168C8612068C06904
:1034C000296940EA01202168C86100E000BF00BF0F
:1034D00000BF002084F83C0000BF00BF8BE710B5A0
:1034E00004460CB9012010BD94F83D0028B9002015
:1034F00084F83C00204600F025F8022084F83D00C6
:10350000211D206807F012FE012084F8460000BF4C
:1035100084F83E0001213F20015540200155412003
:10352000015500BF00BF012084F84200432001552F
:10353000442001554520015500BF012084F83D007D
:103540000020D0E77047704770B504460D4615B9A6
:1035500094F83E000BE0042D02D13F20005D06E010
:10356000082D02D14020005D01E04120005D0128CE
:1035700001D0012070BD1DB9022084F83E000EE08C
:10358000042D03D102213F20015508E0082D03D16D
:1035900002214020015502E0022141200155012273
:1035A0002946206807F02EFE23492068884203D070
:1035B00022492068884201D1012000E0002028B182
:1035C0002068406C40F40040216848641A49206833
:1035D00088421BD02068B0F1804F17D0184920686E
:1035E000884213D01749206888420FD016492068B6
:1035F00088420BD011492068884207D013492068BF
:10360000884203D01249206888420CD12068806823
:1036100000F00706062E0CD02068006840F001007C
:103620002168086005E02068006840F0010021681A
:10363000086000209EE700000000014000040140F7
:103640000004004000080040000C00400040014021
:103650000018004070477047704710B504460CB919
:10366000012010BD242084F83D002068C06820F4AB
:1036700000502168C860204600F070F900202064E6
:1036800084F83D0084F83E00206300BF84F83C00CD
:1036900000BF00BFE5E770472DE9F84F04462068FA
:1036A00005682068C668206847694FF00009CA4667
:1036B00005F00F09B9F1000F0AD105F0200038B16B
:1036C00006F0200020B1204607F0A3FFBDE8F88FE8
:1036D000B9F1000F72D007F0010018B906F490702C
:1036E00000286BD005F0010030B106F4807018B1ED
:1036F000206C40F00100206405F0040030B107F0B8
:10370000010018B1206C40F00200206405F00200B6
:1037100030B107F0010018B1206C40F004002064C3
:1037200005F0080048B106F0200010B907F00100CC
:1037300018B1206C40F008002064206C70B305F0D4
:10374000200028B106F0200010B1204607F061FFEC
:1037500020684069C0F3801A206C00F0080010B99E
:10376000BAF1000F23D0204607F01EFF2068406901
:1037700000F04000402816D12068406920F0400049
:1037800021684861A06B50B15648A16B0865A06BD9
:10379000FDF728FF10B1A06B016D88470CE02046B3
:1037A000FFF779FF08E02046FFF775FF04E02046A9
:1037B000FFF771FF0020206488E7FFE7206B0128F6
:1037C00079D105F01000002875D006F0100000280F
:1037D00071D000BF00200090206800680090206831
:1037E0004068009000BF00BF2068406900F04000C2
:1037F000402839D1A06B006840681FFA80F8B8F102
:10380000000F30D0A08D40452DDDA4F82E80A06B98
:10381000C069B0F5807F1FD02068C06820F4807038
:103820002168C8602068406920F001002168486173
:103830002068406920F0400021684861202084F819
:103840003E00002020632068C06820F0100021683E
:10385000C860A06BFDF771FEA08DE28D801A81B269
:103860002046FFF7F9FE31E7A08DE18D401A1FFADF
:1038700080F8E08DE8B1B8F1000F1AD02068C06878
:1038800020F490702168C8602068406920F0010031
:1038900021684861202084F83E00002020632068D1
:1038A000C06820F010002168C86041462046FFF73C
:1038B000D3FE0BE7FFE705F0800030B106F0800093
:1038C00018B1204608F066F800E705F0400030B176
:1038D00006F0400018B1204607F081FEF6E600BF72
:1038E000F4E6000079B4000810B504460CB90120D4
:1038F00010BDA06900B100E000BF94F83D0028B9F8
:10390000002084F83C00204600F0BEF8242084F813
:103910003D002068C06820F400502168C86020463F
:1039200007F0D6FE2068006920F490402168086105
:103930002068406920F02A00216848612068C0683A
:1039400040F400502168C86000202064202084F8E2
:103950003D0084F83E000020CAE7000010B5044690
:103960003F492068884214D13E48006820F4002076
:103970003C4908604FF440613B48FEF773F8606BC8
:10398000FDF744FEA06BFDF741FE3420FEF76AFD13
:1039900065E036492068884217D13248006820F433
:1039A00080103049086089142F48FEF75BF8042125
:1039B0002F48FEF757F8606BFDF728FEA06BFDF768
:1039C00025FE3520FEF74EFD49E02A492068884251
:1039D00016D12448001D006820F010002149091D5F
:1039E00008604FF4C0612448FEF73CF8606BFDF7B7
:1039F0000DFEA06BFDF70AFE2520FEF733FD2EE03D
:103A00001E492068884214D11648006820F480209E
:103A1000144908604FF440611948FEF723F8606BC1
:103A2000FDF7F4FDA06BFDF7F1FD2720FEF71AFD71
:103A300015E014492068884211D10A48001D006829
:103A400020F020000749091D0860C0210648FEF744
:103A500009F8606BFDF7DAFD4720FEF703FD10BDA6
:103A6000004C004040380240000802400050004036
:103A7000000C0240001001400000024000480040DD
:103A8000000402400014014010B586B00446142121
:103A900001A8FCF7DFFBFE49206888427CD100BF0B
:103AA00000200090FB48006840F40020F9490860BD
:103AB0000846006800F40020009000BF00BF00BF6F
:103AC00000200090F3481038006840F00400F149ED
:103AD000103908600846006800F00400009000BF3C
:103AE00000BF4FF44060019002200290012003903B
:103AF000032004900820059001A9E748FEF764F828
:103B0000E648E74908604FF0006048604021E4481B
:103B100081600021C1604FF4806101610021416139
:103B20008161C1614FF40031016200214162FDF702
:103B3000C5FE08B1FDF718F800BFD948606384637B
:103B400000BFD6483038D74908604005486000219A
:103B5000D4488160C1604FF48061016100214161FE
:103B600081614FF48071C1614902016200214162AB
:103B7000FDF7A4FE08B1FCF7F7FF00BFC948A0633A
:103B8000846300BF002211463420FEF79DFC3420E0
:103B9000FEF78AFC26E2FFE7C349206888427DD110
:103BA00000BF00200090BB48006840F48010B94975
:103BB00008600846006800F48010009000BF00BF55
:103BC00000BF00200090B3481038006840F00400A7
:103BD000B049103908600846006800F00400009001
:103BE00000BF00BF00BF002000900846006840F002
:103BF000080008600846006800F00800009000BF58
:103C000000BF88140190022002900120039003203D
:103C100004900820059001A99F48FDF7D5FF0420D6
:103C200001900220029001200390032004900820BC
:103C3000059001A99D48FDF7C7FF984848309C4969
:103C400008604FF000604860402199488160002181
:103C5000C1604FF480610161002141618161C161F6
:103C60004FF40031016200214162FDF727FE08B1E7
:103C7000FCF77AFF00BF8E486063846300BF87480B
:103C800060388C490860C00548600021894881601F
:103C9000C1604FF480610161002100E01BE04161DF
:103CA00081614FF48071C16149020162002141626A
:103CB000FDF704FE08B1FCF757FF00BF7D48A06385
:103CC000846300BF002211463520FEF7FDFB35203E
:103CD000FEF7EAFB86E17849206888427BD100BF85
:103CE000002000906B48001D006840F010006949FA
:103CF000091D08600846006800F01000009000BF31
:103D000000BF00BF0020009062481038006840F0FB
:103D100001006049103908600846006800F00100A1
:103D2000009000BF00BF4FF4C060019002200290DD
:103D300000200390032004900720059001A95F480C
:103D4000FDF742FF5E485F4908604FF00060486041
:103D500040215C4881600021C1604FF480610161B5
:103D6000002141618161C16101624162FDF7A6FDEF
:103D700008B1FCF7F9FE00BF52486063846300BFDE
:103D80004F487838504908604FF000604860002183
:103D90004D488160C1604FF4806101610021416143
:103DA00081614FF48071C161002101624162FDF7C0
:103DB00085FD08B1FCF7D8FE00BF4348A0638463CB
:103DC00000BF002211462520FEF77EFB2520FEF7CE
:103DD0006BFB07E1FFE73D492068884257D100BFF0
:103DE000002000902B48006840F48020294908609A
:103DF0000846006800F48020009000BF00BF00BFAC
:103E00000020009023481038006840F0020021494B
:103E1000103908600846006800F00200009000BFFA
:103E200000BF4FF4406001900220029000200390F8
:103E3000032004900720059001A92548FDF7C4FE42
:103E400016481838234908604FF000604860402148
:103E5000204881600021C1604FF480610161002130
:103E600041618161C1614FF4003101620021416211
:103E7000FDF724FD08B1FCF777FE00BF154860632D
:103E8000846300BF054848381349086026E04CE0C9
:103E9000004C004040380240000802407060024080
:103EA000B80B0020180C002000500040000C02400D
:103EB000780C0020D80C00200010014000000240C7
:103EC000B8640240380D0020980D002000480040E2
:103ED00000040240F80D0020580E00204FF0006052
:103EE0004860002140488160C1604FF480610161F9
:103EF0000021416181614FF48071C1614902016219
:103F000000214162FDF7DAFC08B1FCF72DFE00BF8D
:103F10003548A063846300BF002211462720FEF7C6
:103F2000D3FA2720FEF7C0FA5CE0304920688842C7
:103F300058D100BF002000902D48006840F02000BC
:103F40002B4908600846006800F02000009000BF80
:103F500000BF00BF0020009025481438006840F0E2
:103F600004002349143908600846006800F0040082
:103F7000009000BF00BFC0200190022002900020EE
:103F80000390032004900820059001A91948FDF72B
:103F90001BFE1948194908604FF020604860402115
:103FA000164881600021C1604FF4806101610021E9
:103FB00041618161C1614FF40031016200214162C0
:103FC000FDF77CFC08B1FCF7CFFD00BF0B48606338
:103FD000846300BF002211464720FEF775FA472090
:103FE000FEF762FA06B010BD580E00200014014022
:103FF0004438024000080240A0640240B80E00208D
:1040000070B504460D46164694F83E00202816D199
:1040100005B10EB9012070BD00BF94F83C00012825
:1040200001D10220F7E7012084F83C0000BF002006
:10403000206332462946204607F060FCEBE7022069
:10404000E9E7704770470000F7B50446154694F855
:104050003D0020283DD1019800B10DB90120FEBDE1
:1040600000BF94F83C00012801D10220F7E70120AD
:1040700084F83C0000BF01982062A584E5840020FC
:104080002064212084F83D001348616BC863134805
:10409000616B08641248616BC8640020616B08653D
:1040A00001AE23681A1D31682B46606BFDF77CFC5E
:1040B0006FF040002168086000BF002084F83C00D9
:1040C00000BF2068406940F08000216848610020FE
:1040D000C5E70220C3E7000065B500089BB50008EE
:1040E0008DB4000810B504461248D0F808011249F2
:1040F000884202D10F4809F0CDFE1048D0F80801DF
:104100000F49884202D10D4809F0C4FE0D48D0F88D
:1041100008010D49884202D10A4809F0BBFE0B484C
:10412000D0F808010A49884202D1084809F0B2FED5
:1041300010BD00002845002000100140C0170020DD
:1041400000480040A0220020004C0040802D0020AC
:1041500000500040704700BFFEE701460868406914
:10416000C0F38020B0B16FF480600A685061002015
:104170000863202081F83D00002081F83E00086C93
:1041800040F00400086400BF002081F83C0000BF3C
:10419000012070470020FCE72DE9F84304468846DB
:1041A00015469946DDE908672068006840F480708C
:1041B00021680860334600224FF001112046009725
:1041C00000F088F860B12068006800F48070B0F5F5
:1041D000807F02D14FF4007020640320BDE8F88393
:1041E00008F0FE00216808613B463246214920461E
:1041F00000F0B3F808B10120F0E700BF0020009004
:1042000020684069009020688069009000BF00BF6E
:104210003A463146204600F002F950B1206C04289D
:1042200005D12068006840F4007021680860012012
:10423000D4E7B9F1010F03D1E8B22168086117E0B2
:10424000C5F30720216808613A463146204600F050
:10425000E6F850B1206C042805D12068006840F4CD
:104260000070216808600120B8E7E8B221680861A1
:104270000020B3E70200010070B504460D46164663
:1042800020E02046FFF769FF08B1012070BD681CDF
:10429000C0B1FDF7B3FD801BA84200D895B900203E
:1042A0002063202084F83D00002084F83E00206C2C
:1042B00040F02000206400BF002084F83C0000BFD4
:1042C0000120E3E720684069C0F380000028D8D0CF
:1042D0000020DBE72DE9F04104460D4617461E4657
:1042E000DDF818801CE0701CD0B1FDF787FDA0EB55
:1042F0000800B04200D89EB900202063202084F836
:104300003D00002084F83E00206C40F02000206436
:1043100000BF002084F83C0000BF0120BDE8F08110
:10432000C5F3074001280AD120684069A9B20840B6
:10433000A9B2884201D101200BE0002009E02068E9
:104340008069A9B20840A9B2884201D1012000E0E9
:104350000020B842C7D00020E0E72DE9F041044634
:104360000D4616461F463DE020684069C0F3802098
:10437000E8B12068006840F40070216808606FF4BC
:1043800080602168486100202063202084F83D007F
:10439000002084F83E00206C40F00400206400BF40
:1043A000002084F83C0000BF0120BDE8F081701CB3
:1043B000C0B1FDF723FDC01BB04200D896B9002064
:1043C0002063202084F83D00002084F83E00206C0B
:1043D00040F02000206400BF002084F83C0000BFB3
:1043E0000120E2E7C5F3074001280AD120684069AF
:1043F000A9B20840A9B2884201D101200BE00020F7
:1044000009E020688069A9B20840A9B2884201D1B8
:10441000012000E000200028A6D00020C5E770B5EC
:1044200004460D46164620E02046FFF796FE08B1EA
:10443000012070BD681CC0B1FDF7E0FC801BA842E4
:1044400000D895B900202063202084F83D0000208A
:1044500084F83E00206C40F02000206400BF002063
:1044600084F83C0000BF0120E3E720684069C0F306
:10447000C0100028D8D00020DBE710B509F088FE76
:1044800010BD000010B504461221002009F068FE9E
:1044900001230D4806C80DA009F01AFF24210020B1
:1044A00009F05EFE0123084806C808A009F010FFC5
:1044B0003621022009F054FE0123084806C808A04E
:1044C00009F006FF10BD0000D808002020202020A1
:1044D000202020202020202020200000D0080020A4
:1044E00020202020202020202020202020202020CC
:1044F000202020007047000010B50024012103484F
:10450000FDF764FC00B90124204610BD0000024004
:1045100070B500250024FFF7EFFF002833D000BF5F
:1045200006E0FFF7E9FF08B9002070BD601C84B207
:1045300044F620608442F4DB844219D114E013482D
:104540000068401C11490860114988420CD90020BC
:104550000E4908600F48006800F040FE0520FDF796
:104560006DFA0DA000F03AFEFFF7C6FF0028E6D175
:104570000848006800F032FE0520FDF75FFA0CA045
:1045800000F02CFE01252846CFE700005400002053
:1045900000350C0050000020627574746F6E206945
:1045A00073207072657373696E67200A00000000E3
:1045B000627574746F6E20697320756E70726573A6
:1045C00073200A0010B500F001F810BD10B50C21E1
:1045D00040F6C41008F008F988B10D488078012829
:1045E00005D100200A498870012048700FE0084872
:1045F000807802280BD100200549487007E0FFF7BA
:1046000087FF20B102488078401C0149887010BDA6
:104610004C000020002005498978022904D100219E
:10462000024A917051700120704700004C00002038
:10463000002005494978012904D10021024A51701E
:1046400091700120704700004C00002010B53048E8
:1046500090F85401012801D100BFFEE72C4890F8E2
:104660005701012801D100BFFEE7294890F8560103
:10467000012801D100BFFEE7254890F85501012827
:1046800001D100BFFEE7224890F8500101281FD158
:1046900000201F4981F8500108214FF47A7008F07A
:1046A000A3F870B11A4890F85101401CC1B21848E3
:1046B00080F851111748006800F090FD16A000F036
:1046C0008DFD134890F85101322801DD00BFFEE74F
:1046D0000F4890F85201012818D100210C4880F8A9
:1046E000521109214FF47A7008F07EF838B1084869
:1046F00090F85301401CC1B2054880F8531104489A
:1047000090F85301642801DD00BFFEE710BD0000F2
:10471000241300203800002043414E205772697452
:1047200065204552524F520A0000000010B500F0BB
:104730002FF800F00BF90120054981F8480040F2FC
:1047400012400449486002483C30C86010BD000077
:10475000241300209815002010B5094890F858013E
:1047600060B90120064981F858010B46B3F9602170
:10477000B3F95E11B3F95C0100F08EF810BD0000D2
:104780002413002010B500F009F9FFF7E5FF10BD74
:1047900000B58BB000200690079001200890002003
:1047A00001900290039004900590012009900E2042
:1047B0000A9001A90548FCF79BFA28B10121044899
:1047C00080F85411FFF742FF0BB000BDF80800203D
:1047D000241300202DE9F04106460F46144600251B
:1047E000B046082C00DD08240020194981F8480053
:1047F00040F212400860012048600020C8608860D4
:1048000008460461002507E0781918F800101048E0
:1048100034304155681CC5B2A542F5DB0C4B44331E
:10482000A3F110020A490B48FCF7B6F930B1012098
:10483000074981F85001FFF709FF07E0002004490C
:1048400081F850010021024880F85111BDE8F08143
:1048500024130020F80800204FF480610548A0F8D8
:104860005C11A0F85E11A0F86011102180F86211AF
:10487000704700002413002010B504B2054BA3F8C4
:104880005C414FF48064A3F85E410CB2A3F8604130
:1048900010BD000024130020FEB504460D46164648
:1048A0000027ADF80440ADF80650ADF8086001A847
:1048B000064B074A04210090092007F0BFFD074678
:1048C000F9B20348801C00F0B7F8FEBDC016002006
:1048D000B01500203EB504460025102C02D18DF8FD
:1048E00004001AE0202C03D120208DF8040014E0ED
:1048F000082C03D108208DF804000EE0042C03D10D
:1049000004208DF8040008E0022C03D102208DF869
:10491000040002E000208DF80400012C02D10120E7
:104920008DF8080001A8074B074A042100900920D0
:1049300007F028FE0546E9B20348801C00F07CF829
:104940003EBD0000C0160020B015002010B5114873
:10495000FCF78DFD28B101210F4880F85711FFF7B2
:1049600075FE02210B48FCF702F928B101210A4823
:1049700080F85511FFF76AFE01210648FCF7F7F8A9
:1049800028B10121044880F85611FFF75FFEFFF7B8
:1049900063FF10BDF80800202413002010B51AA4EE
:1049A0001D480088401C80B21B49088041F28831B4
:1049B00088421ADD002018490880184BB3F960219D
:1049C000B3F95E11B3F95C01FFF766FF14480068A4
:1049D000401C1349086041F28831884205D92046BD
:1049E00000F0FCFB0FA000F0F9FB0C4890F8590117
:1049F000012808D10021094880F85911014691F891
:104A00006201FFF767FF10BD43414E5F444A4920F2
:104A10002D2D2D3E000000003C000020241300201E
:104A20004000002043616E207772697465207263D4
:104A30002076616C75650A002DE9F04107460C4649
:104A40000025B8462646082E00DD0826002505E08C
:104A500018F805100B484155681CC5B2A542F7DB94
:104A6000002008494D3981F84800084680F84D413A
:104A700080F84E61324600214D30FFF7ABFEBDE8B5
:104A8000F08100007113002000200649897D012972
:104A900001D1012004E00349897D022900D10220CF
:104AA000704700006040002000200949C97D0129AD
:104AB00001D101200AE00649C97D022901D1022065
:104AC00004E00349C97D032900D103207047000099
:104AD00060400020002009490969012901D1012015
:104AE0000AE006490969022901D1022004E00349CC
:104AF0000969032900D103207047000060400020AD
:104B000070B522A400252848007A002825D10E215E
:104B10004FF47A7007F068FE002834D023480178FB
:104B20000078401C214A107001292CDD002011461C
:104B3000087005F0C1F9204600F050FB1CA000F001
:104B40004DFB284841784078401C264A507028295F
:104B500019DD01201146087015E000202149487038
:104B60000870012520480068401C1F4908601F4943
:104B7000884208D900201C490860204600F02EFB1E
:104B80001BA000F02BFB284670BD00000A524153C9
:104B90005042455252595F48454152544245415452
:104BA000202D2D2D3E0000006040002060000020E0
:104BB0006E6F7420666F756E6420686561727462D2
:104BC0006561742066726F6D2072617370626572C8
:104BD00072792E2E2E2054727920616761696E0AD7
:104BE00000000000580000205C000020404B4C00FA
:104BF000676F7420686561727462656174206672A3
:104C00006F6D207261737062657272790A000000C4
:104C10007047000010B5B4B04EA4FFF771FF5449BF
:104C20008870FFF731FF022803D101215048C1707D
:104C300006E0FFF729FF012802D100214C48C1708E
:104C4000FFF732FF01281FD101214948417149482E
:104C50000068401C474908604CF25031884259D9DD
:104C6000002044490860204600F0B8FA4248807DA0
:104C7000009041480369027E40A102A806F0E4FECC
:104C800002A800F0ABFA45E0FFF70EFF02281FD1A3
:104C900002213748417137480068401C3549086097
:104CA0004CF25031884235D9002032490860204604
:104CB00000F094FA3048807D00902F480369027E0E
:104CC0003DA102A806F0C0FE02A800F087FA21E08C
:104CD000FFF7EAFE03281DD101212548017125486F
:104CE0000068401C234908604349884212D90020CB
:104CF00020490860204600F071FA1F48807D00902E
:104D00001D480369027E3D4902A806F09DFE02A8E7
:104D100000F064FAFFF7DEFE012805D101211448F6
:104D200081710021C17113E0FFF7D4FE022806D182
:104D300000210F488171C1710121017208E0FFF764
:104D4000C9FE032804D101210948C17100218171E4
:104D500034B010BD0A4745545F46524F4D5F434C37
:104D60004F55445F44415441202D2D2D3E200000DD
:104D70009050002064000020604000204A49475FB6
:104D8000544553545F434C4F55445F444154415F35
:104D900053454E445F434D445F524553554C545F19
:104DA000505553485F4F4B203A202564207C2025E6
:104DB00064207C2025640A004A49475F54455354C7
:104DC0005F434C4F55445F444154415F53454E440B
:104DD0005F434D445F524553554C545F50555348C3
:104DE0005F4641494C203A202564207C20256420E0
:104DF0007C2025640A000000F0490200B826010862
:104E000010B5FFF707FF00F093F800F07BF810BD36
:104E100000203949B1F8C81001290DD1374A92ED67
:104E2000090ABDEEC00A10EE102A11B20122344B5D
:104E30009A721A4691815EE02F49B1F8C810022992
:104E40000DD12E4A92ED0A0ABDEEC00A10EE102ACC
:104E500011B201222A4B9A721A4691814BE02649DF
:104E6000B1F8C81003290DD1244A92ED0B0ABDEE0A
:104E7000C00A10EE102A11B20122214B9A721A4672
:104E8000918138E01C49B1F8C81004290DD11B4AA2
:104E900092ED0C0ABDEEC00A10EE102A11B20122EA
:104EA000174B9A721A46918125E01349B1F8C81040
:104EB00005290DD1114A92ED0D0ABDEEC00A10EE82
:104EC000102A11B201220E4B9A721A46918112E0F9
:104ED0000949B1F8C81006290DD1084A92ED0E0A09
:104EE000BDEEC00A10EE102A11B20122044B9A72D4
:104EF0001A46918100BF704760400020905000200A
:104F00004041002010B5FFF7CFFD012803D1062155
:104F10000648017609E0FFF7C7FD022803D1062104
:104F20000248017601E0FFF7BFFD10BD60400020A0
:104F300010B5B4B059A4FFF7CDFD00281ED1012152
:104F40005D4801765D480068401C5C4908605C492A
:104F5000884212D9002059490860204600F03EF9E5
:104F60005548807D009054480369027E55A102A8EF
:104F700006F06AFD02A800F031F98DE0FFF7AAFD06
:104F800001283ED15E480078092809D15C48007F9D
:104F900001281AD1032148480176FFF739FF14E0B0
:104FA000574800780A2809D15548007F01280CD1BC
:104FB000042141480176FFF72BFF06E002213E481D
:104FC000017600203C49A1F8C8003C480068401C1C
:104FD0003A4908603A4988425ED90020374908605A
:104FE000204600F0FBF83448807D00903248036989
:104FF000027E44A102A806F027FD02A800F0EEF808
:105000004AE0FFF767FD022821D101212A480176F5
:1050100000213B48817129480068401C27490860ED
:105020002749884238D9002024490860204600F0EA
:10503000D5F82148807D00901F480369027E40A179
:1050400002A806F001FD02A800F0C8F824E0FFF76E
:1050500041FD032820D10521174801760121284868
:10506000C17116480068401C144908601449884200
:1050700012D9002011490860204600F0AFF80E4810
:10508000807D00900C480369027E3CA102A806F0D6
:10509000DBFC02A800F0A2F834B010BD0A53454E64
:1050A000445F544F5F434C4F55445F44415441204B
:1050B0002D2D2D3E200000006040002068000020C3
:1050C000F04902004A49475F544553545F434C4FEF
:1050D00055445F444154415F53454E445F434D4402
:1050E0005F5354415455535F4E4F4E45203A20254F
:1050F00064207C202564207C2025640A00000000B8
:10510000905000204A49475F544553545F434C4FE9
:1051100055445F444154415F53454E445F434D44C1
:105120005F5354415455535F5354415254203A20D5
:105130002564207C202564207C2025640A00000052
:105140004A49475F544553545F434C4F55445F446D
:105150004154415F53454E445F434D445F53544176
:105160005455535F53544F50203A202564207C20DF
:105170002564207C2025640A000000004A49475F1E
:10518000544553545F434C4F55445F444154415F31
:1051900053454E445F434D445F5354415455535F10
:1051A0005245534554203A202564207C2025642014
:1051B0007C2025640A00000005490648C0F840111B
:1051C00005480449C1F80801012081F8060170472B
:1051D000980D0020284500200010014070B50446BD
:1051E0002046FBF742F848B92046FBF73EF8C5B227
:1051F0002A4607A10A4808F06CFE08E02046FBF7A3
:1052000034F8C5B22A462146054808F062FE70BD52
:105210004E4F4E452043484152202121210A000093
:10522000284500202DE9F04105460C460026284679
:10523000FBF71BF887B207FB04F01FFA80F8C8F1F0
:10524000870000EBD071C1F34F063046BDE8F08116
:105250000246002001460FE0094810F83100904254
:1052600004D1074800EBC100406870470AB905A0A7
:10527000FBE7481CC0B201460B29EDDB00BFF4E799
:10528000600800204752454D5359000010B59CB0AE
:1052900000F0E8F8002837D03149087FFFF7D8FF41
:1052A00030494860304806C830480078FFF7EAF8CF
:1052B0002B49087FFFF7CCFF044622462CA103A808
:1052C00006F0C2FB2B4903C9002303AACDE9000164
:1052D000294801780B2000F0C1FB284903C90123AC
:1052E00027A2CDE9000121480178062000F0B6FB95
:1052F0001D4903C9002326A2CDE9000126480178F3
:10530000072000F0ABFB26E0164819A1426803A86D
:1053100006F09AFB174903C9002303AACDE900014F
:10532000154801780B2000F099FB144903C90123AB
:105330001AA2CDE900010D480178062000F08EFB8D
:10534000094903C900231AA2CDE9000112480178D6
:10535000072000F083FBFFF790F81CB010BD0000A1
:10536000A03E0020CC500020D0080020590800208A
:1053700025730000D808002058080020C808002025
:10538000424152434F4445205343414E00000000E8
:10539000444F4E45000000005B08002047494D4245
:1053A000414C204A494720544553542000000000F6
:1053B000465354440000000010B50BA00C4948604F
:1053C00008F050FE012807D109490870FFF75EFF79
:1053D00008A0FFF703FF05E001200549487213A06C
:1053E000FFF7FCFE10BD00004752454D5359000029
:1053F000CC5000202D2D2D2D2D2D2D2D2D2D2D2D55
:105400002D20444953504C415920494E4954204481
:105410004F4E45202D2D2D2D2D2D2D2D2D2D2D2D6E
:105420002D2D2D2D2D2D2D0A000000002D2D2D2D83
:105430002D2D2D2D2D2D2D2D2D20444953504C41FA
:105440005920494E4954204552524F52202D2D2D5E
:105450002D2D2D2D2D2D2D2D2D2D2D2D2D2D2D2D7C
:105460000A0000000148007D7047000090500020B5
:105470002DE9F04107460C4615461E46012F04D182
:1054800029462046FAF705FF03E031462046FAF7A1
:1054900000FFBDE8F081000010B59CB0044600217B
:1054A000084608F05DFE01230B4806C80BA008F073
:1054B0000FFF22460DA103A806F0C6FA064903C94C
:1054C000002303AACDE90001094801780B2000F070
:1054D000C5FA1CB010BD0000D808002020202020F4
:1054E00020202020202020202020000025730000E4
:1054F000580800201CB5104806C810480078FEF770
:10550000C1FF0F48407D022815D10E4903C9012370
:105510000DA2CDE9000109480178062000F09EFAAD
:10552000054903C900230DA2CDE900010C4801780B
:10553000072000F093FA1CBDD00800205908002075
:1055400090500020C808002047494D42414C20534C
:10555000544154452043414C49422000494D550097
:105560005B0800201CB5104806C810480078FEF7FC
:1055700089FF0F48407D012815D10E4903C9012339
:105580000DA2CDE9000109480178062000F066FA75
:10559000054903C900230DA2CDE900010D4801789A
:1055A000072000F05BFA1CBDD0080020590800203D
:1055B00090500020C808002047494D42414C2053DC
:1055C000544154452043414C494220004D4F544FD3
:1055D000520000005B08002010B53448007F40B145
:1055E0003249087FFFF734FE314948604868FFF7C9
:1055F00053FF2F480078012857D12E4840780D28B6
:1056000051D2DFE800F050070A5050500D105013EF
:10561000164C4F0000F0C6F946E000F0EBF943E00D
:10562000FFF7A0FF40E0FFF765FF3DE000F08EF8D8
:105630003AE0204800780B282DD2DFE800F006077A
:105640000B0F13171B1F23272B0024E01AA000F0B9
:1056500053F820E01AA000F04FF81CE019A000F069
:105660004BF818E018A000F047F814E018A000F07C
:1056700043F810E018A000F03FF80CE017A000F08D
:105680003BF808E017A000F037F804E018A000F09D
:1056900033F800E000BF00BF00F05EF904E000F066
:1056A0007DF801E000E000BF00BF10BDA03E00207B
:1056B000CC50002090500020534255530000000071
:1056C00050504D0043414E00434F4D32000000000A
:1056D000434F4D3400000000415558005649425296
:1056E000415445005055534820434C4F5544000009
:1056F000444F4E450000000010B59CB004460D48D4
:1057000006C80D480078FEF7BDFE22460BA103A88F
:1057100006F09AF9074903C9CDE900010648007867
:10572000801CC1B2012303AA072000F097F91CB026
:1057300010BD0000D008002059080020257300008B
:1057400010B5FFF749FFFEF798FE10BD1CB50948DC
:1057500006C809480078FEF795FE084903C90123E9
:1057600007A2CDE900010C480178062000F076F987
:105770001CBD0000D008002059080020C8080020E7
:1057800053455454494E4720504152414D204749BA
:105790004D42414C000000005A080020F0B5DDB039
:1057A0000C254FF4B472614903A8FAF73AFD60483A
:1057B000007800284CD101205D49087000BF0AE044
:1057C0005C49095C012904D15B490978491C5A4AA2
:1057D0001170411CC8B20928F2DB5748007808282C
:1057E00002D101205549087200242FE0032C14DC5B
:1057F000C4EB041603AF07EB460606F10F03C4EB38
:10580000041607EB460204EB84064D4F07EB8601B6
:105810004A4E307AFFF72CFE16E0032C14DDC4EB61
:10582000041603AF07EB460606F10F03C4EB04169C
:1058300007EB460204EB8406414F07EB8601E61EA8
:105840003C4FB85DFFF714FE601CC4B20C2CCDDDDC
:105850003C49087800EBD0714910A0EB4101A1B997
:1058600039480078032805DD384806C838480078EC
:10587000FEF708FE3448007800284AD1334806C8AD
:1058800033480078FEF7FEFD43E02F4800780428F7
:1058900010DA304903C9CDE900012B48007800EB4C
:1058A0008000274901EB800200231921102000F01D
:1058B000D5F824E0244800780A2810D1234903C9E8
:1058C000CDE900012048007800EB80001C4901EB85
:1058D000800201232321072000F0C0F80FE01B49BC
:1058E00003C9CDE900011848007800EB8000144995
:1058F00001EB800201232321072000F0AFF81248BA
:105900000078401CC0B2104908700B2801DD00204F
:1059100008700C480078401CC0B20A49087018286A
:1059200001DD002008705DB0F0BD000018EF000838
:10593000B908002099500020BA080020CC5000205F
:10594000D8500020BC080020BB080020D008002050
:1059500059080020E008002000B59BB009480AA1C2
:10596000826902A806F070F80C4903C9012302AA53
:10597000CDE900010A480178062000F06FF81BB05D
:1059800000BD00009050002054696D65207465735F
:1059900074203A20252E336400000000C80800203F
:1059A0005B0800201CB50A4806C80A480078FEF7C4
:1059B00069FD094903C9CDE9000108480078801C48
:1059C000C1B2012306A2062000F048F81CBD000069
:1059D000D008002059080020C80800205A080020DC
:1059E0005741495454494E4720464F52204C4F4747
:1059F000494E00001CB50E4806C80E480078FEF758
:105A000041FD0D4903C901230CA2CDE9000109485C
:105A10000178062000F022F8054903C900230CA2F2
:105A2000CDE900010C480178072000F017F81CBDF3
:105A3000D008002059080020C808002057414954C8
:105A400054494E4720464F52205343414E000000D8
:105A5000424152434F4445005B0800202DE9F0418C
:105A600004460E4615461F464FF00008E1B2284690
:105A7000FFF7D8FB804608F0FF00314608F070FBC6
:105A80003B462846DDE9061208F022FCBDE8F0811D
:105A900038B50446A07D012802D104F045FC06E09B
:105AA0002520005D012802D1002004F025FCE07DC6
:105AB00001280AD12248007820B901202049087025
:105AC00004F0DEFA04F0E6FA06E02620005D012884
:105AD00002D1002004F0D4FA207E01280DD119480B
